{
	"data": {
		"bytecode": {
			"linkReferences": {},
			"object": "6080604052612710600d553480156200001757600080fd5b506040518060400160405280600981526020017f4861636b65724f6e6500000000000000000000000000000000000000000000008152506040518060400160405280600281526020017f483100000000000000000000000000000000000000000000000000000000000081525081600090805190602001906200009c929190620001c7565b508060019080519060200190620000b5929190620001c7565b5050506000600b60006101000a81548160ff021916908315150217905550620000f3620000e7620000f960201b60201c565b6200010160201b60201c565b620002dc565b600033905090565b6000600b60019054906101000a900473ffffffffffffffffffffffffffffffffffffffff16905081600b60016101000a81548173ffffffffffffffffffffffffffffffffffffffff021916908373ffffffffffffffffffffffffffffffffffffffff1602179055508173ffffffffffffffffffffffffffffffffffffffff168173ffffffffffffffffffffffffffffffffffffffff167f8be0079c531659141344cd1fd0a4f28419497f9722a3daafe3b4186f6b6457e060405160405180910390a35050565b828054620001d59062000277565b90600052602060002090601f016020900481019282620001f9576000855562000245565b82601f106200021457805160ff191683800117855562000245565b8280016001018555821562000245579182015b828111156200024457825182559160200191906001019062000227565b5b50905062000254919062000258565b5090565b5b808211156200027357600081600090555060010162000259565b5090565b600060028204905060018216806200029057607f821691505b60208210811415620002a757620002a6620002ad565b5b50919050565b7f4e487b7100000000000000000000000000000000000000000000000000000000600052602260045260246000fd5b61401080620002ec6000396000f3fe608060405234801561001057600080fd5b50600436106101585760003560e01c80636352211e116100c3578063a22cb4651161007c578063a22cb465146103a1578063b88d4fde146103bd578063c87b56dd146103d9578063d204c45e14610409578063e985e9c514610425578063f2fde38b1461045557610158565b80636352211e146102f157806370a0823114610321578063715018a6146103515780638456cb591461035b5780638da5cb5b1461036557806395d89b411461038357610158565b80632f745c59116101155780632f745c59146102315780633f4ba83a1461026157806342842e0e1461026b57806342966c68146102875780634f6ccce7146102a35780635c975abb146102d357610158565b806301ffc9a71461015d57806306fdde031461018d578063081812fc146101ab578063095ea7b3146101db57806318160ddd146101f757806323b872dd14610215575b600080fd5b61017760048036038101906101729190612c9f565b610471565b60405161018491906131bd565b60405180910390f35b610195610483565b6040516101a291906131d8565b60405180910390f35b6101c560048036038101906101c09190612cf1565b610515565b6040516101d29190613156565b60405180910390f35b6101f560048036038101906101f09190612c63565b61059a565b005b6101ff6106b2565b60405161020c91906134fa565b60405180910390f35b61022f600480360381019061022a9190612b09565b6106bf565b005b61024b60048036038101906102469190612c63565b61071f565b60405161025891906134fa565b60405180910390f35b6102696107c4565b005b61028560048036038101906102809190612b09565b61084a565b005b6102a1600480360381019061029c9190612cf1565b61086a565b005b6102bd60048036038101906102b89190612cf1565b6108c6565b6040516102ca91906134fa565b60405180910390f35b6102db61095d565b6040516102e891906131bd565b60405180910390f35b61030b60048036038101906103069190612cf1565b610974565b6040516103189190613156565b60405180910390f35b61033b60048036038101906103369190612aa4565b610a26565b60405161034891906134fa565b60405180910390f35b610359610ade565b005b610363610b66565b005b61036d610bec565b60405161037a9190613156565b60405180910390f35b61038b610c16565b60405161039891906131d8565b60405180910390f35b6103bb60048036038101906103b69190612bd3565b610ca8565b005b6103d760048036038101906103d29190612b58565b610cbe565b005b6103f360048036038101906103ee9190612cf1565b610d20565b60405161040091906131d8565b60405180910390f35b610423600480360381019061041e9190612c0f565b610d32565b005b61043f600480360381019061043a9190612acd565b610e24565b60405161044c91906131bd565b60405180910390f35b61046f600480360381019061046a9190612aa4565b610eb8565b005b600061047c82610fb0565b9050919050565b60606000805461049290613750565b80601f01602080910402602001604051908101604052809291908181526020018280546104be90613750565b801561050b5780601f106104e05761010080835404028352916020019161050b565b820191906000526020600020905b8154815290600101906020018083116104ee57829003601f168201915b5050505050905090565b60006105208261102a565b61055f576040517f08c379a00000000000000000000000000000000000000000000000000000000081526004016105569061341a565b60405180910390fd5b6004600083815260200190815260200160002060009054906101000a900473ffffffffffffffffffffffffffffffffffffffff169050919050565b60006105a582610974565b90508073ffffffffffffffffffffffffffffffffffffffff168373ffffffffffffffffffffffffffffffffffffffff161415610616576040517f08c379a000000000000000000000000000000000000000000000000000000000815260040161060d9061347a565b60405180910390fd5b8073ffffffffffffffffffffffffffffffffffffffff16610635611096565b73ffffffffffffffffffffffffffffffffffffffff16148061066457506106638161065e611096565b610e24565b5b6106a3576040517f08c379a000000000000000000000000000000000000000000000000000000000815260040161069a9061335a565b60405180910390fd5b6106ad838361109e565b505050565b6000600880549050905090565b6106d06106ca611096565b82611157565b61070f576040517f08c379a00000000000000000000000000000000000000000000000000000000081526004016107069061349a565b60405180910390fd5b61071a838383611235565b505050565b600061072a83610a26565b821061076b576040517f08c379a00000000000000000000000000000000000000000000000000000000081526004016107629061321a565b60405180910390fd5b600660008473ffffffffffffffffffffffffffffffffffffffff1673ffffffffffffffffffffffffffffffffffffffff168152602001908152602001600020600083815260200190815260200160002054905092915050565b6107cc611096565b73ffffffffffffffffffffffffffffffffffffffff166107ea610bec565b73ffffffffffffffffffffffffffffffffffffffff1614610840576040517f08c379a00000000000000000000000000000000000000000000000000000000081526004016108379061343a565b60405180910390fd5b61084861149c565b565b61086583838360405180602001604052806000815250610cbe565b505050565b61087b610875611096565b82611157565b6108ba576040517f08c379a00000000000000000000000000000000000000000000000000000000081526004016108b1906134da565b60405180910390fd5b6108c38161153e565b50565b60006108d06106b2565b8210610911576040517f08c379a0000000000000000000000000000000000000000000000000000000008152600401610908906134ba565b60405180910390fd5b6008828154811061094b577f4e487b7100000000000000000000000000000000000000000000000000000000600052603260045260246000fd5b90600052602060002001549050919050565b6000600b60009054906101000a900460ff16905090565b6000806002600084815260200190815260200160002060009054906101000a900473ffffffffffffffffffffffffffffffffffffffff169050600073ffffffffffffffffffffffffffffffffffffffff168173ffffffffffffffffffffffffffffffffffffffff161415610a1d576040517f08c379a0000000000000000000000000000000000000000000000000000000008152600401610a149061339a565b60405180910390fd5b80915050919050565b60008073ffffffffffffffffffffffffffffffffffffffff168273ffffffffffffffffffffffffffffffffffffffff161415610a97576040517f08c379a0000000000000000000000000000000000000000000000000000000008152600401610a8e9061337a565b60405180910390fd5b600360008373ffffffffffffffffffffffffffffffffffffffff1673ffffffffffffffffffffffffffffffffffffffff168152602001908152602001600020549050919050565b610ae6611096565b73ffffffffffffffffffffffffffffffffffffffff16610b04610bec565b73ffffffffffffffffffffffffffffffffffffffff1614610b5a576040517f08c379a0000000000000000000000000000000000000000000000000000000008152600401610b519061343a565b60405180910390fd5b610b64600061154a565b565b610b6e611096565b73ffffffffffffffffffffffffffffffffffffffff16610b8c610bec565b73ffffffffffffffffffffffffffffffffffffffff1614610be2576040517f08c379a0000000000000000000000000000000000000000000000000000000008152600401610bd99061343a565b60405180910390fd5b610bea611610565b565b6000600b60019054906101000a900473ffffffffffffffffffffffffffffffffffffffff16905090565b606060018054610c2590613750565b80601f0160208091040260200160405190810160405280929190818152602001828054610c5190613750565b8015610c9e5780601f10610c7357610100808354040283529160200191610c9e565b820191906000526020600020905b815481529060010190602001808311610c8157829003601f168201915b5050505050905090565b610cba610cb3611096565b83836116b3565b5050565b610ccf610cc9611096565b83611157565b610d0e576040517f08c379a0000000000000000000000000000000000000000000000000000000008152600401610d059061349a565b60405180910390fd5b610d1a84848484611820565b50505050565b6060610d2b8261187c565b9050919050565b610d3a611096565b73ffffffffffffffffffffffffffffffffffffffff16610d58610bec565b73ffffffffffffffffffffffffffffffffffffffff1614610dae576040517f08c379a0000000000000000000000000000000000000000000000000000000008152600401610da59061343a565b60405180910390fd5b6000610dba600c6119ce565b9050600d54811115610e01576040517f08c379a0000000000000000000000000000000000000000000000000000000008152600401610df8906132fa565b60405180910390fd5b610e0b600c6119dc565b610e1583826119f2565b610e1f8183611a10565b505050565b6000600560008473ffffffffffffffffffffffffffffffffffffffff1673ffffffffffffffffffffffffffffffffffffffff16815260200190815260200160002060008373ffffffffffffffffffffffffffffffffffffffff1673ffffffffffffffffffffffffffffffffffffffff16815260200190815260200160002060009054906101000a900460ff16905092915050565b610ec0611096565b73ffffffffffffffffffffffffffffffffffffffff16610ede610bec565b73ffffffffffffffffffffffffffffffffffffffff1614610f34576040517f08c379a0000000000000000000000000000000000000000000000000000000008152600401610f2b9061343a565b60405180910390fd5b600073ffffffffffffffffffffffffffffffffffffffff168173ffffffffffffffffffffffffffffffffffffffff161415610fa4576040517f08c379a0000000000000000000000000000000000000000000000000000000008152600401610f9b9061325a565b60405180910390fd5b610fad8161154a565b50565b60007f780e9d63000000000000000000000000000000000000000000000000000000007bffffffffffffffffffffffffffffffffffffffffffffffffffffffff1916827bffffffffffffffffffffffffffffffffffffffffffffffffffffffff19161480611023575061102282611a84565b5b9050919050565b60008073ffffffffffffffffffffffffffffffffffffffff166002600084815260200190815260200160002060009054906101000a900473ffffffffffffffffffffffffffffffffffffffff1673ffffffffffffffffffffffffffffffffffffffff1614159050919050565b600033905090565b816004600083815260200190815260200160002060006101000a81548173ffffffffffffffffffffffffffffffffffffffff021916908373ffffffffffffffffffffffffffffffffffffffff160217905550808273ffffffffffffffffffffffffffffffffffffffff1661111183610974565b73ffffffffffffffffffffffffffffffffffffffff167f8c5be1e5ebec7d5bd14f71427d1e84f3dd0314c0f7b2291e5b200ac8c7c3b92560405160405180910390a45050565b60006111628261102a565b6111a1576040517f08c379a00000000000000000000000000000000000000000000000000000000081526004016111989061331a565b60405180910390fd5b60006111ac83610974565b90508073ffffffffffffffffffffffffffffffffffffffff168473ffffffffffffffffffffffffffffffffffffffff1614806111ee57506111ed8185610e24565b5b8061122c57508373ffffffffffffffffffffffffffffffffffffffff1661121484610515565b73ffffffffffffffffffffffffffffffffffffffff16145b91505092915050565b8273ffffffffffffffffffffffffffffffffffffffff1661125582610974565b73ffffffffffffffffffffffffffffffffffffffff16146112ab576040517f08c379a00000000000000000000000000000000000000000000000000000000081526004016112a29061327a565b60405180910390fd5b600073ffffffffffffffffffffffffffffffffffffffff168273ffffffffffffffffffffffffffffffffffffffff16141561131b576040517f08c379a0000000000000000000000000000000000000000000000000000000008152600401611312906132ba565b60405180910390fd5b611326838383611b66565b61133160008261109e565b6001600360008573ffffffffffffffffffffffffffffffffffffffff1673ffffffffffffffffffffffffffffffffffffffff16815260200190815260200160002060008282546113819190613666565b925050819055506001600360008473ffffffffffffffffffffffffffffffffffffffff1673ffffffffffffffffffffffffffffffffffffffff16815260200190815260200160002060008282546113d891906135df565b92505081905550816002600083815260200190815260200160002060006101000a81548173ffffffffffffffffffffffffffffffffffffffff021916908373ffffffffffffffffffffffffffffffffffffffff160217905550808273ffffffffffffffffffffffffffffffffffffffff168473ffffffffffffffffffffffffffffffffffffffff167fddf252ad1be2c89b69c2b068fc378daa952ba7f163c4a11628f55a4df523b3ef60405160405180910390a4611497838383611bbe565b505050565b6114a461095d565b6114e3576040517f08c379a00000000000000000000000000000000000000000000000000000000081526004016114da906131fa565b60405180910390fd5b6000600b60006101000a81548160ff0219169083151502179055507f5db9ee0a495bf2e6ff9c91a7834c1ba4fdd244a5e8aa4e537bd38aeae4b073aa611527611096565b6040516115349190613156565b60405180910390a1565b61154781611bc3565b50565b6000600b60019054906101000a900473ffffffffffffffffffffffffffffffffffffffff16905081600b60016101000a81548173ffffffffffffffffffffffffffffffffffffffff021916908373ffffffffffffffffffffffffffffffffffffffff1602179055508173ffffffffffffffffffffffffffffffffffffffff168173ffffffffffffffffffffffffffffffffffffffff167f8be0079c531659141344cd1fd0a4f28419497f9722a3daafe3b4186f6b6457e060405160405180910390a35050565b61161861095d565b15611658576040517f08c379a000000000000000000000000000000000000000000000000000000000815260040161164f9061333a565b60405180910390fd5b6001600b60006101000a81548160ff0219169083151502179055507f62e78cea01bee320cd4e420270b5ea74000d11b0c9f74754ebdbfc544b05a25861169c611096565b6040516116a99190613156565b60405180910390a1565b8173ffffffffffffffffffffffffffffffffffffffff168373ffffffffffffffffffffffffffffffffffffffff161415611722576040517f08c379a0000000000000000000000000000000000000000000000000000000008152600401611719906132da565b60405180910390fd5b80600560008573ffffffffffffffffffffffffffffffffffffffff1673ffffffffffffffffffffffffffffffffffffffff16815260200190815260200160002060008473ffffffffffffffffffffffffffffffffffffffff1673ffffffffffffffffffffffffffffffffffffffff16815260200190815260200160002060006101000a81548160ff0219169083151502179055508173ffffffffffffffffffffffffffffffffffffffff168373ffffffffffffffffffffffffffffffffffffffff167f17307eab39ab6107e8899845ad3d59bd9653f200f220920489ca2b5937696c318360405161181391906131bd565b60405180910390a3505050565b61182b848484611235565b61183784848484611c16565b611876576040517f08c379a000000000000000000000000000000000000000000000000000000000815260040161186d9061323a565b60405180910390fd5b50505050565b60606118878261102a565b6118c6576040517f08c379a00000000000000000000000000000000000000000000000000000000081526004016118bd906133fa565b60405180910390fd5b6000600a600084815260200190815260200160002080546118e690613750565b80601f016020809104026020016040519081016040528092919081815260200182805461191290613750565b801561195f5780601f106119345761010080835404028352916020019161195f565b820191906000526020600020905b81548152906001019060200180831161194257829003601f168201915b505050505090506000611970611dad565b90506000815114156119865781925050506119c9565b6000825111156119bb5780826040516020016119a3929190613132565b604051602081830303815290604052925050506119c9565b6119c484611dc4565b925050505b919050565b600081600001549050919050565b6001816000016000828254019250508190555050565b611a0c828260405180602001604052806000815250611e6b565b5050565b611a198261102a565b611a58576040517f08c379a0000000000000000000000000000000000000000000000000000000008152600401611a4f906133ba565b60405180910390fd5b80600a60008481526020019081526020016000209080519060200190611a7f929190612888565b505050565b60007f80ac58cd000000000000000000000000000000000000000000000000000000007bffffffffffffffffffffffffffffffffffffffffffffffffffffffff1916827bffffffffffffffffffffffffffffffffffffffffffffffffffffffff19161480611b4f57507f5b5e139f000000000000000000000000000000000000000000000000000000007bffffffffffffffffffffffffffffffffffffffffffffffffffffffff1916827bffffffffffffffffffffffffffffffffffffffffffffffffffffffff1916145b80611b5f5750611b5e82611ec6565b5b9050919050565b611b6e61095d565b15611bae576040517f08c379a0000000000000000000000000000000000000000000000000000000008152600401611ba59061333a565b60405180910390fd5b611bb9838383611f30565b505050565b505050565b611bcc81612044565b6000600a60008381526020019081526020016000208054611bec90613750565b905014611c1357600a60008281526020019081526020016000206000611c12919061290e565b5b50565b6000611c378473ffffffffffffffffffffffffffffffffffffffff16612161565b15611da0578373ffffffffffffffffffffffffffffffffffffffff1663150b7a02611c60611096565b8786866040518563ffffffff1660e01b8152600401611c829493929190613171565b602060405180830381600087803b158015611c9c57600080fd5b505af1925050508015611ccd57506040513d601f19601f82011682018060405250810190611cca9190612cc8565b60015b611d50573d8060008114611cfd576040519150601f19603f3d011682016040523d82523d6000602084013e611d02565b606091505b50600081511415611d48576040517f08c379a0000000000000000000000000000000000000000000000000000000008152600401611d3f9061323a565b60405180910390fd5b805181602001fd5b63150b7a0260e01b7bffffffffffffffffffffffffffffffffffffffffffffffffffffffff1916817bffffffffffffffffffffffffffffffffffffffffffffffffffffffff191614915050611da5565b600190505b949350505050565b606060405180602001604052806000815250905090565b6060611dcf8261102a565b611e0e576040517f08c379a0000000000000000000000000000000000000000000000000000000008152600401611e059061345a565b60405180910390fd5b6000611e18611dad565b90506000815111611e385760405180602001604052806000815250611e63565b80611e4284612184565b604051602001611e53929190613132565b6040516020818303038152906040525b915050919050565b611e758383612331565b611e826000848484611c16565b611ec1576040517f08c379a0000000000000000000000000000000000000000000000000000000008152600401611eb89061323a565b60405180910390fd5b505050565b60007f01ffc9a7000000000000000000000000000000000000000000000000000000007bffffffffffffffffffffffffffffffffffffffffffffffffffffffff1916827bffffffffffffffffffffffffffffffffffffffffffffffffffffffff1916149050919050565b611f3b83838361250b565b600073ffffffffffffffffffffffffffffffffffffffff168373ffffffffffffffffffffffffffffffffffffffff161415611f7e57611f7981612510565b611fbd565b8173ffffffffffffffffffffffffffffffffffffffff168373ffffffffffffffffffffffffffffffffffffffff1614611fbc57611fbb8382612559565b5b5b600073ffffffffffffffffffffffffffffffffffffffff168273ffffffffffffffffffffffffffffffffffffffff16141561200057611ffb816126c6565b61203f565b8273ffffffffffffffffffffffffffffffffffffffff168273ffffffffffffffffffffffffffffffffffffffff161461203e5761203d8282612809565b5b5b505050565b600061204f82610974565b905061205d81600084611b66565b61206860008361109e565b6001600360008373ffffffffffffffffffffffffffffffffffffffff1673ffffffffffffffffffffffffffffffffffffffff16815260200190815260200160002060008282546120b89190613666565b925050819055506002600083815260200190815260200160002060006101000a81549073ffffffffffffffffffffffffffffffffffffffff021916905581600073ffffffffffffffffffffffffffffffffffffffff168273ffffffffffffffffffffffffffffffffffffffff167fddf252ad1be2c89b69c2b068fc378daa952ba7f163c4a11628f55a4df523b3ef60405160405180910390a461215d81600084611bbe565b5050565b6000808273ffffffffffffffffffffffffffffffffffffffff163b119050919050565b606060008214156121cc576040518060400160405280600181526020017f3000000000000000000000000000000000000000000000000000000000000000815250905061232c565b600082905060005b600082146121fe5780806121e7906137b3565b915050600a826121f79190613635565b91506121d4565b60008167ffffffffffffffff811115612240577f4e487b7100000000000000000000000000000000000000000000000000000000600052604160045260246000fd5b6040519080825280601f01601f1916602001820160405280156122725781602001600182028036833780820191505090505b5090505b600085146123255760018261228b9190613666565b9150600a8561229a91906137fc565b60306122a691906135df565b60f81b8183815181106122e2577f4e487b7100000000000000000000000000000000000000000000000000000000600052603260045260246000fd5b60200101907effffffffffffffffffffffffffffffffffffffffffffffffffffffffffffff1916908160001a905350600a8561231e9190613635565b9450612276565b8093505050505b919050565b600073ffffffffffffffffffffffffffffffffffffffff168273ffffffffffffffffffffffffffffffffffffffff1614156123a1576040517f08c379a0000000000000000000000000000000000000000000000000000000008152600401612398906133da565b60405180910390fd5b6123aa8161102a565b156123ea576040517f08c379a00000000000000000000000000000000000000000000000000000000081526004016123e19061329a565b60405180910390fd5b6123f660008383611b66565b6001600360008473ffffffffffffffffffffffffffffffffffffffff1673ffffffffffffffffffffffffffffffffffffffff168152602001908152602001600020600082825461244691906135df565b92505081905550816002600083815260200190815260200160002060006101000a81548173ffffffffffffffffffffffffffffffffffffffff021916908373ffffffffffffffffffffffffffffffffffffffff160217905550808273ffffffffffffffffffffffffffffffffffffffff16600073ffffffffffffffffffffffffffffffffffffffff167fddf252ad1be2c89b69c2b068fc378daa952ba7f163c4a11628f55a4df523b3ef60405160405180910390a461250760008383611bbe565b5050565b505050565b6008805490506009600083815260200190815260200160002081905550600881908060018154018082558091505060019003906000526020600020016000909190919091505550565b6000600161256684610a26565b6125709190613666565b9050600060076000848152602001908152602001600020549050818114612655576000600660008673ffffffffffffffffffffffffffffffffffffffff1673ffffffffffffffffffffffffffffffffffffffff168152602001908152602001600020600084815260200190815260200160002054905080600660008773ffffffffffffffffffffffffffffffffffffffff1673ffffffffffffffffffffffffffffffffffffffff168152602001908152602001600020600084815260200190815260200160002081905550816007600083815260200190815260200160002081905550505b6007600084815260200190815260200160002060009055600660008573ffffffffffffffffffffffffffffffffffffffff1673ffffffffffffffffffffffffffffffffffffffff16815260200190815260200160002060008381526020019081526020016000206000905550505050565b600060016008805490506126da9190613666565b9050600060096000848152602001908152602001600020549050600060088381548110612730577f4e487b7100000000000000000000000000000000000000000000000000000000600052603260045260246000fd5b906000526020600020015490508060088381548110612778577f4e487b7100000000000000000000000000000000000000000000000000000000600052603260045260246000fd5b9060005260206000200181905550816009600083815260200190815260200160002081905550600960008581526020019081526020016000206000905560088054806127ed577f4e487b7100000000000000000000000000000000000000000000000000000000600052603160045260246000fd5b6001900381819060005260206000200160009055905550505050565b600061281483610a26565b905081600660008573ffffffffffffffffffffffffffffffffffffffff1673ffffffffffffffffffffffffffffffffffffffff168152602001908152602001600020600083815260200190815260200160002081905550806007600084815260200190815260200160002081905550505050565b82805461289490613750565b90600052602060002090601f0160209004810192826128b657600085556128fd565b82601f106128cf57805160ff19168380011785556128fd565b828001600101855582156128fd579182015b828111156128fc5782518255916020019190600101906128e1565b5b50905061290a919061294e565b5090565b50805461291a90613750565b6000825580601f1061292c575061294b565b601f01602090049060005260206000209081019061294a919061294e565b5b50565b5b8082111561296757600081600090555060010161294f565b5090565b600061297e6129798461353a565b613515565b90508281526020810184848401111561299657600080fd5b6129a184828561370e565b509392505050565b60006129bc6129b78461356b565b613515565b9050828152602081018484840111156129d457600080fd5b6129df84828561370e565b509392505050565b6000813590506129f681613f7e565b92915050565b600081359050612a0b81613f95565b92915050565b600081359050612a2081613fac565b92915050565b600081519050612a3581613fac565b92915050565b600082601f830112612a4c57600080fd5b8135612a5c84826020860161296b565b91505092915050565b600082601f830112612a7657600080fd5b8135612a868482602086016129a9565b91505092915050565b600081359050612a9e81613fc3565b92915050565b600060208284031215612ab657600080fd5b6000612ac4848285016129e7565b91505092915050565b60008060408385031215612ae057600080fd5b6000612aee858286016129e7565b9250506020612aff858286016129e7565b9150509250929050565b600080600060608486031215612b1e57600080fd5b6000612b2c868287016129e7565b9350506020612b3d868287016129e7565b9250506040612b4e86828701612a8f565b9150509250925092565b60008060008060808587031215612b6e57600080fd5b6000612b7c878288016129e7565b9450506020612b8d878288016129e7565b9350506040612b9e87828801612a8f565b925050606085013567ffffffffffffffff811115612bbb57600080fd5b612bc787828801612a3b565b91505092959194509250565b60008060408385031215612be657600080fd5b6000612bf4858286016129e7565b9250506020612c05858286016129fc565b9150509250929050565b60008060408385031215612c2257600080fd5b6000612c30858286016129e7565b925050602083013567ffffffffffffffff811115612c4d57600080fd5b612c5985828601612a65565b9150509250929050565b60008060408385031215612c7657600080fd5b6000612c84858286016129e7565b9250506020612c9585828601612a8f565b9150509250929050565b600060208284031215612cb157600080fd5b6000612cbf84828501612a11565b91505092915050565b600060208284031215612cda57600080fd5b6000612ce884828501612a26565b91505092915050565b600060208284031215612d0357600080fd5b6000612d1184828501612a8f565b91505092915050565b612d238161369a565b82525050565b612d32816136ac565b82525050565b6000612d438261359c565b612d4d81856135b2565b9350612d5d81856020860161371d565b612d66816138e9565b840191505092915050565b6000612d7c826135a7565b612d8681856135c3565b9350612d9681856020860161371d565b612d9f816138e9565b840191505092915050565b6000612db5826135a7565b612dbf81856135d4565b9350612dcf81856020860161371d565b80840191505092915050565b6000612de86014836135c3565b9150612df3826138fa565b602082019050919050565b6000612e0b602b836135c3565b9150612e1682613923565b604082019050919050565b6000612e2e6032836135c3565b9150612e3982613972565b604082019050919050565b6000612e516026836135c3565b9150612e5c826139c1565b604082019050919050565b6000612e746025836135c3565b9150612e7f82613a10565b604082019050919050565b6000612e97601c836135c3565b9150612ea282613a5f565b602082019050919050565b6000612eba6024836135c3565b9150612ec582613a88565b604082019050919050565b6000612edd6019836135c3565b9150612ee882613ad7565b602082019050919050565b6000612f006021836135c3565b9150612f0b82613b00565b604082019050919050565b6000612f23602c836135c3565b9150612f2e82613b4f565b604082019050919050565b6000612f466010836135c3565b9150612f5182613b9e565b602082019050919050565b6000612f696038836135c3565b9150612f7482613bc7565b604082019050919050565b6000612f8c602a836135c3565b9150612f9782613c16565b604082019050919050565b6000612faf6029836135c3565b9150612fba82613c65565b604082019050919050565b6000612fd2602e836135c3565b9150612fdd82613cb4565b604082019050919050565b6000612ff56020836135c3565b915061300082613d03565b602082019050919050565b60006130186031836135c3565b915061302382613d2c565b604082019050919050565b600061303b602c836135c3565b915061304682613d7b565b604082019050919050565b600061305e6020836135c3565b915061306982613dca565b602082019050919050565b6000613081602f836135c3565b915061308c82613df3565b604082019050919050565b60006130a46021836135c3565b91506130af82613e42565b604082019050919050565b60006130c76031836135c3565b91506130d282613e91565b604082019050919050565b60006130ea602c836135c3565b91506130f582613ee0565b604082019050919050565b600061310d6030836135c3565b915061311882613f2f565b604082019050919050565b61312c81613704565b82525050565b600061313e8285612daa565b915061314a8284612daa565b91508190509392505050565b600060208201905061316b6000830184612d1a565b92915050565b60006080820190506131866000830187612d1a565b6131936020830186612d1a565b6131a06040830185613123565b81810360608301526131b28184612d38565b905095945050505050565b60006020820190506131d26000830184612d29565b92915050565b600060208201905081810360008301526131f28184612d71565b905092915050565b6000602082019050818103600083015261321381612ddb565b9050919050565b6000602082019050818103600083015261323381612dfe565b9050919050565b6000602082019050818103600083015261325381612e21565b9050919050565b6000602082019050818103600083015261327381612e44565b9050919050565b6000602082019050818103600083015261329381612e67565b9050919050565b600060208201905081810360008301526132b381612e8a565b9050919050565b600060208201905081810360008301526132d381612ead565b9050919050565b600060208201905081810360008301526132f381612ed0565b9050919050565b6000602082019050818103600083015261331381612ef3565b9050919050565b6000602082019050818103600083015261333381612f16565b9050919050565b6000602082019050818103600083015261335381612f39565b9050919050565b6000602082019050818103600083015261337381612f5c565b9050919050565b6000602082019050818103600083015261339381612f7f565b9050919050565b600060208201905081810360008301526133b381612fa2565b9050919050565b600060208201905081810360008301526133d381612fc5565b9050919050565b600060208201905081810360008301526133f381612fe8565b9050919050565b600060208201905081810360008301526134138161300b565b9050919050565b600060208201905081810360008301526134338161302e565b9050919050565b6000602082019050818103600083015261345381613051565b9050919050565b6000602082019050818103600083015261347381613074565b9050919050565b6000602082019050818103600083015261349381613097565b9050919050565b600060208201905081810360008301526134b3816130ba565b9050919050565b600060208201905081810360008301526134d3816130dd565b9050919050565b600060208201905081810360008301526134f381613100565b9050919050565b600060208201905061350f6000830184613123565b92915050565b600061351f613530565b905061352b8282613782565b919050565b6000604051905090565b600067ffffffffffffffff821115613555576135546138ba565b5b61355e826138e9565b9050602081019050919050565b600067ffffffffffffffff821115613586576135856138ba565b5b61358f826138e9565b9050602081019050919050565b600081519050919050565b600081519050919050565b600082825260208201905092915050565b600082825260208201905092915050565b600081905092915050565b60006135ea82613704565b91506135f583613704565b9250827fffffffffffffffffffffffffffffffffffffffffffffffffffffffffffffffff0382111561362a5761362961382d565b5b828201905092915050565b600061364082613704565b915061364b83613704565b92508261365b5761365a61385c565b5b828204905092915050565b600061367182613704565b915061367c83613704565b92508282101561368f5761368e61382d565b5b828203905092915050565b60006136a5826136e4565b9050919050565b60008115159050919050565b60007fffffffff0000000000000000000000000000000000000000000000000000000082169050919050565b600073ffffffffffffffffffffffffffffffffffffffff82169050919050565b6000819050919050565b82818337600083830152505050565b60005b8381101561373b578082015181840152602081019050613720565b8381111561374a576000848401525b50505050565b6000600282049050600182168061376857607f821691505b6020821081141561377c5761377b61388b565b5b50919050565b61378b826138e9565b810181811067ffffffffffffffff821117156137aa576137a96138ba565b5b80604052505050565b60006137be82613704565b91507fffffffffffffffffffffffffffffffffffffffffffffffffffffffffffffffff8214156137f1576137f061382d565b5b600182019050919050565b600061380782613704565b915061381283613704565b9250826138225761382161385c565b5b828206905092915050565b7f4e487b7100000000000000000000000000000000000000000000000000000000600052601160045260246000fd5b7f4e487b7100000000000000000000000000000000000000000000000000000000600052601260045260246000fd5b7f4e487b7100000000000000000000000000000000000000000000000000000000600052602260045260246000fd5b7f4e487b7100000000000000000000000000000000000000000000000000000000600052604160045260246000fd5b6000601f19601f8301169050919050565b7f5061757361626c653a206e6f7420706175736564000000000000000000000000600082015250565b7f455243373231456e756d657261626c653a206f776e657220696e646578206f7560008201527f74206f6620626f756e6473000000000000000000000000000000000000000000602082015250565b7f4552433732313a207472616e7366657220746f206e6f6e20455243373231526560008201527f63656976657220696d706c656d656e7465720000000000000000000000000000602082015250565b7f4f776e61626c653a206e6577206f776e657220697320746865207a65726f206160008201527f6464726573730000000000000000000000000000000000000000000000000000602082015250565b7f4552433732313a207472616e736665722066726f6d20696e636f72726563742060008201527f6f776e6572000000000000000000000000000000000000000000000000000000602082015250565b7f4552433732313a20746f6b656e20616c7265616479206d696e74656400000000600082015250565b7f4552433732313a207472616e7366657220746f20746865207a65726f2061646460008201527f7265737300000000000000000000000000000000000000000000000000000000602082015250565b7f4552433732313a20617070726f766520746f2063616c6c657200000000000000600082015250565b7f536f7272792c206d6178204e465427732068617665206265656e206d696e746560008201527f6400000000000000000000000000000000000000000000000000000000000000602082015250565b7f4552433732313a206f70657261746f7220717565727920666f72206e6f6e657860008201527f697374656e7420746f6b656e0000000000000000000000000000000000000000602082015250565b7f5061757361626c653a2070617573656400000000000000000000000000000000600082015250565b7f4552433732313a20617070726f76652063616c6c6572206973206e6f74206f7760008201527f6e6572206e6f7220617070726f76656420666f7220616c6c0000000000000000602082015250565b7f4552433732313a2062616c616e636520717565727920666f7220746865207a6560008201527f726f206164647265737300000000000000000000000000000000000000000000602082015250565b7f4552433732313a206f776e657220717565727920666f72206e6f6e657869737460008201527f656e7420746f6b656e0000000000000000000000000000000000000000000000602082015250565b7f45524337323155524953746f726167653a2055524920736574206f66206e6f6e60008201527f6578697374656e7420746f6b656e000000000000000000000000000000000000602082015250565b7f4552433732313a206d696e7420746f20746865207a65726f2061646472657373600082015250565b7f45524337323155524953746f726167653a2055524920717565727920666f722060008201527f6e6f6e6578697374656e7420746f6b656e000000000000000000000000000000602082015250565b7f4552433732313a20617070726f76656420717565727920666f72206e6f6e657860008201527f697374656e7420746f6b656e0000000000000000000000000000000000000000602082015250565b7f4f776e61626c653a2063616c6c6572206973206e6f7420746865206f776e6572600082015250565b7f4552433732314d657461646174613a2055524920717565727920666f72206e6f60008201527f6e6578697374656e7420746f6b656e0000000000000000000000000000000000602082015250565b7f4552433732313a20617070726f76616c20746f2063757272656e74206f776e6560008201527f7200000000000000000000000000000000000000000000000000000000000000602082015250565b7f4552433732313a207472616e736665722063616c6c6572206973206e6f74206f60008201527f776e6572206e6f7220617070726f766564000000000000000000000000000000602082015250565b7f455243373231456e756d657261626c653a20676c6f62616c20696e646578206f60008201527f7574206f6620626f756e64730000000000000000000000000000000000000000602082015250565b7f4552433732314275726e61626c653a2063616c6c6572206973206e6f74206f7760008201527f6e6572206e6f7220617070726f76656400000000000000000000000000000000602082015250565b613f878161369a565b8114613f9257600080fd5b50565b613f9e816136ac565b8114613fa957600080fd5b50565b613fb5816136b8565b8114613fc057600080fd5b50565b613fcc81613704565b8114613fd757600080fd5b5056fea2646970667358221220cfc96dcb6c10f9879d44bb235574a6623a625b98c622386efc9e573aa208d1cb64736f6c63430008040033",
			"opcodes": "PUSH1 0x80 PUSH1 0x40 MSTORE PUSH2 0x2710 PUSH1 0xD SSTORE CALLVALUE DUP1 ISZERO PUSH3 0x17 JUMPI PUSH1 0x0 DUP1 REVERT JUMPDEST POP PUSH1 0x40 MLOAD DUP1 PUSH1 0x40 ADD PUSH1 0x40 MSTORE DUP1 PUSH1 0x9 DUP2 MSTORE PUSH1 0x20 ADD PUSH32 0x4861636B65724F6E650000000000000000000000000000000000000000000000 DUP2 MSTORE POP PUSH1 0x40 MLOAD DUP1 PUSH1 0x40 ADD PUSH1 0x40 MSTORE DUP1 PUSH1 0x2 DUP2 MSTORE PUSH1 0x20 ADD PUSH32 0x4831000000000000000000000000000000000000000000000000000000000000 DUP2 MSTORE POP DUP2 PUSH1 0x0 SWAP1 DUP1 MLOAD SWAP1 PUSH1 0x20 ADD SWAP1 PUSH3 0x9C SWAP3 SWAP2 SWAP1 PUSH3 0x1C7 JUMP JUMPDEST POP DUP1 PUSH1 0x1 SWAP1 DUP1 MLOAD SWAP1 PUSH1 0x20 ADD SWAP1 PUSH3 0xB5 SWAP3 SWAP2 SWAP1 PUSH3 0x1C7 JUMP JUMPDEST POP POP POP PUSH1 0x0 PUSH1 0xB PUSH1 0x0 PUSH2 0x100 EXP DUP2 SLOAD DUP2 PUSH1 0xFF MUL NOT AND SWAP1 DUP4 ISZERO ISZERO MUL OR SWAP1 SSTORE POP PUSH3 0xF3 PUSH3 0xE7 PUSH3 0xF9 PUSH1 0x20 SHL PUSH1 0x20 SHR JUMP JUMPDEST PUSH3 0x101 PUSH1 0x20 SHL PUSH1 0x20 SHR JUMP JUMPDEST PUSH3 0x2DC JUMP JUMPDEST PUSH1 0x0 CALLER SWAP1 POP SWAP1 JUMP JUMPDEST PUSH1 0x0 PUSH1 0xB PUSH1 0x1 SWAP1 SLOAD SWAP1 PUSH2 0x100 EXP SWAP1 DIV PUSH20 0xFFFFFFFFFFFFFFFFFFFFFFFFFFFFFFFFFFFFFFFF AND SWAP1 POP DUP2 PUSH1 0xB PUSH1 0x1 PUSH2 0x100 EXP DUP2 SLOAD DUP2 PUSH20 0xFFFFFFFFFFFFFFFFFFFFFFFFFFFFFFFFFFFFFFFF MUL NOT AND SWAP1 DUP4 PUSH20 0xFFFFFFFFFFFFFFFFFFFFFFFFFFFFFFFFFFFFFFFF AND MUL OR SWAP1 SSTORE POP DUP2 PUSH20 0xFFFFFFFFFFFFFFFFFFFFFFFFFFFFFFFFFFFFFFFF AND DUP2 PUSH20 0xFFFFFFFFFFFFFFFFFFFFFFFFFFFFFFFFFFFFFFFF AND PUSH32 0x8BE0079C531659141344CD1FD0A4F28419497F9722A3DAAFE3B4186F6B6457E0 PUSH1 0x40 MLOAD PUSH1 0x40 MLOAD DUP1 SWAP2 SUB SWAP1 LOG3 POP POP JUMP JUMPDEST DUP3 DUP1 SLOAD PUSH3 0x1D5 SWAP1 PUSH3 0x277 JUMP JUMPDEST SWAP1 PUSH1 0x0 MSTORE PUSH1 0x20 PUSH1 0x0 KECCAK256 SWAP1 PUSH1 0x1F ADD PUSH1 0x20 SWAP1 DIV DUP2 ADD SWAP3 DUP3 PUSH3 0x1F9 JUMPI PUSH1 0x0 DUP6 SSTORE PUSH3 0x245 JUMP JUMPDEST DUP3 PUSH1 0x1F LT PUSH3 0x214 JUMPI DUP1 MLOAD PUSH1 0xFF NOT AND DUP4 DUP1 ADD OR DUP6 SSTORE PUSH3 0x245 JUMP JUMPDEST DUP3 DUP1 ADD PUSH1 0x1 ADD DUP6 SSTORE DUP3 ISZERO PUSH3 0x245 JUMPI SWAP2 DUP3 ADD JUMPDEST DUP3 DUP2 GT ISZERO PUSH3 0x244 JUMPI DUP3 MLOAD DUP3 SSTORE SWAP2 PUSH1 0x20 ADD SWAP2 SWAP1 PUSH1 0x1 ADD SWAP1 PUSH3 0x227 JUMP JUMPDEST JUMPDEST POP SWAP1 POP PUSH3 0x254 SWAP2 SWAP1 PUSH3 0x258 JUMP JUMPDEST POP SWAP1 JUMP JUMPDEST JUMPDEST DUP1 DUP3 GT ISZERO PUSH3 0x273 JUMPI PUSH1 0x0 DUP2 PUSH1 0x0 SWAP1 SSTORE POP PUSH1 0x1 ADD PUSH3 0x259 JUMP JUMPDEST POP SWAP1 JUMP JUMPDEST PUSH1 0x0 PUSH1 0x2 DUP3 DIV SWAP1 POP PUSH1 0x1 DUP3 AND DUP1 PUSH3 0x290 JUMPI PUSH1 0x7F DUP3 AND SWAP2 POP JUMPDEST PUSH1 0x20 DUP3 LT DUP2 EQ ISZERO PUSH3 0x2A7 JUMPI PUSH3 0x2A6 PUSH3 0x2AD JUMP JUMPDEST JUMPDEST POP SWAP2 SWAP1 POP JUMP JUMPDEST PUSH32 0x4E487B7100000000000000000000000000000000000000000000000000000000 PUSH1 0x0 MSTORE PUSH1 0x22 PUSH1 0x4 MSTORE PUSH1 0x24 PUSH1 0x0 REVERT JUMPDEST PUSH2 0x4010 DUP1 PUSH3 0x2EC PUSH1 0x0 CODECOPY PUSH1 0x0 RETURN INVALID PUSH1 0x80 PUSH1 0x40 MSTORE CALLVALUE DUP1 ISZERO PUSH2 0x10 JUMPI PUSH1 0x0 DUP1 REVERT JUMPDEST POP PUSH1 0x4 CALLDATASIZE LT PUSH2 0x158 JUMPI PUSH1 0x0 CALLDATALOAD PUSH1 0xE0 SHR DUP1 PUSH4 0x6352211E GT PUSH2 0xC3 JUMPI DUP1 PUSH4 0xA22CB465 GT PUSH2 0x7C JUMPI DUP1 PUSH4 0xA22CB465 EQ PUSH2 0x3A1 JUMPI DUP1 PUSH4 0xB88D4FDE EQ PUSH2 0x3BD JUMPI DUP1 PUSH4 0xC87B56DD EQ PUSH2 0x3D9 JUMPI DUP1 PUSH4 0xD204C45E EQ PUSH2 0x409 JUMPI DUP1 PUSH4 0xE985E9C5 EQ PUSH2 0x425 JUMPI DUP1 PUSH4 0xF2FDE38B EQ PUSH2 0x455 JUMPI PUSH2 0x158 JUMP JUMPDEST DUP1 PUSH4 0x6352211E EQ PUSH2 0x2F1 JUMPI DUP1 PUSH4 0x70A08231 EQ PUSH2 0x321 JUMPI DUP1 PUSH4 0x715018A6 EQ PUSH2 0x351 JUMPI DUP1 PUSH4 0x8456CB59 EQ PUSH2 0x35B JUMPI DUP1 PUSH4 0x8DA5CB5B EQ PUSH2 0x365 JUMPI DUP1 PUSH4 0x95D89B41 EQ PUSH2 0x383 JUMPI PUSH2 0x158 JUMP JUMPDEST DUP1 PUSH4 0x2F745C59 GT PUSH2 0x115 JUMPI DUP1 PUSH4 0x2F745C59 EQ PUSH2 0x231 JUMPI DUP1 PUSH4 0x3F4BA83A EQ PUSH2 0x261 JUMPI DUP1 PUSH4 0x42842E0E EQ PUSH2 0x26B JUMPI DUP1 PUSH4 0x42966C68 EQ PUSH2 0x287 JUMPI DUP1 PUSH4 0x4F6CCCE7 EQ PUSH2 0x2A3 JUMPI DUP1 PUSH4 0x5C975ABB EQ PUSH2 0x2D3 JUMPI PUSH2 0x158 JUMP JUMPDEST DUP1 PUSH4 0x1FFC9A7 EQ PUSH2 0x15D JUMPI DUP1 PUSH4 0x6FDDE03 EQ PUSH2 0x18D JUMPI DUP1 PUSH4 0x81812FC EQ PUSH2 0x1AB JUMPI DUP1 PUSH4 0x95EA7B3 EQ PUSH2 0x1DB JUMPI DUP1 PUSH4 0x18160DDD EQ PUSH2 0x1F7 JUMPI DUP1 PUSH4 0x23B872DD EQ PUSH2 0x215 JUMPI JUMPDEST PUSH1 0x0 DUP1 REVERT JUMPDEST PUSH2 0x177 PUSH1 0x4 DUP1 CALLDATASIZE SUB DUP2 ADD SWAP1 PUSH2 0x172 SWAP2 SWAP1 PUSH2 0x2C9F JUMP JUMPDEST PUSH2 0x471 JUMP JUMPDEST PUSH1 0x40 MLOAD PUSH2 0x184 SWAP2 SWAP1 PUSH2 0x31BD JUMP JUMPDEST PUSH1 0x40 MLOAD DUP1 SWAP2 SUB SWAP1 RETURN JUMPDEST PUSH2 0x195 PUSH2 0x483 JUMP JUMPDEST PUSH1 0x40 MLOAD PUSH2 0x1A2 SWAP2 SWAP1 PUSH2 0x31D8 JUMP JUMPDEST PUSH1 0x40 MLOAD DUP1 SWAP2 SUB SWAP1 RETURN JUMPDEST PUSH2 0x1C5 PUSH1 0x4 DUP1 CALLDATASIZE SUB DUP2 ADD SWAP1 PUSH2 0x1C0 SWAP2 SWAP1 PUSH2 0x2CF1 JUMP JUMPDEST PUSH2 0x515 JUMP JUMPDEST PUSH1 0x40 MLOAD PUSH2 0x1D2 SWAP2 SWAP1 PUSH2 0x3156 JUMP JUMPDEST PUSH1 0x40 MLOAD DUP1 SWAP2 SUB SWAP1 RETURN JUMPDEST PUSH2 0x1F5 PUSH1 0x4 DUP1 CALLDATASIZE SUB DUP2 ADD SWAP1 PUSH2 0x1F0 SWAP2 SWAP1 PUSH2 0x2C63 JUMP JUMPDEST PUSH2 0x59A JUMP JUMPDEST STOP JUMPDEST PUSH2 0x1FF PUSH2 0x6B2 JUMP JUMPDEST PUSH1 0x40 MLOAD PUSH2 0x20C SWAP2 SWAP1 PUSH2 0x34FA JUMP JUMPDEST PUSH1 0x40 MLOAD DUP1 SWAP2 SUB SWAP1 RETURN JUMPDEST PUSH2 0x22F PUSH1 0x4 DUP1 CALLDATASIZE SUB DUP2 ADD SWAP1 PUSH2 0x22A SWAP2 SWAP1 PUSH2 0x2B09 JUMP JUMPDEST PUSH2 0x6BF JUMP JUMPDEST STOP JUMPDEST PUSH2 0x24B PUSH1 0x4 DUP1 CALLDATASIZE SUB DUP2 ADD SWAP1 PUSH2 0x246 SWAP2 SWAP1 PUSH2 0x2C63 JUMP JUMPDEST PUSH2 0x71F JUMP JUMPDEST PUSH1 0x40 MLOAD PUSH2 0x258 SWAP2 SWAP1 PUSH2 0x34FA JUMP JUMPDEST PUSH1 0x40 MLOAD DUP1 SWAP2 SUB SWAP1 RETURN JUMPDEST PUSH2 0x269 PUSH2 0x7C4 JUMP JUMPDEST STOP JUMPDEST PUSH2 0x285 PUSH1 0x4 DUP1 CALLDATASIZE SUB DUP2 ADD SWAP1 PUSH2 0x280 SWAP2 SWAP1 PUSH2 0x2B09 JUMP JUMPDEST PUSH2 0x84A JUMP JUMPDEST STOP JUMPDEST PUSH2 0x2A1 PUSH1 0x4 DUP1 CALLDATASIZE SUB DUP2 ADD SWAP1 PUSH2 0x29C SWAP2 SWAP1 PUSH2 0x2CF1 JUMP JUMPDEST PUSH2 0x86A JUMP JUMPDEST STOP JUMPDEST PUSH2 0x2BD PUSH1 0x4 DUP1 CALLDATASIZE SUB DUP2 ADD SWAP1 PUSH2 0x2B8 SWAP2 SWAP1 PUSH2 0x2CF1 JUMP JUMPDEST PUSH2 0x8C6 JUMP JUMPDEST PUSH1 0x40 MLOAD PUSH2 0x2CA SWAP2 SWAP1 PUSH2 0x34FA JUMP JUMPDEST PUSH1 0x40 MLOAD DUP1 SWAP2 SUB SWAP1 RETURN JUMPDEST PUSH2 0x2DB PUSH2 0x95D JUMP JUMPDEST PUSH1 0x40 MLOAD PUSH2 0x2E8 SWAP2 SWAP1 PUSH2 0x31BD JUMP JUMPDEST PUSH1 0x40 MLOAD DUP1 SWAP2 SUB SWAP1 RETURN JUMPDEST PUSH2 0x30B PUSH1 0x4 DUP1 CALLDATASIZE SUB DUP2 ADD SWAP1 PUSH2 0x306 SWAP2 SWAP1 PUSH2 0x2CF1 JUMP JUMPDEST PUSH2 0x974 JUMP JUMPDEST PUSH1 0x40 MLOAD PUSH2 0x318 SWAP2 SWAP1 PUSH2 0x3156 JUMP JUMPDEST PUSH1 0x40 MLOAD DUP1 SWAP2 SUB SWAP1 RETURN JUMPDEST PUSH2 0x33B PUSH1 0x4 DUP1 CALLDATASIZE SUB DUP2 ADD SWAP1 PUSH2 0x336 SWAP2 SWAP1 PUSH2 0x2AA4 JUMP JUMPDEST PUSH2 0xA26 JUMP JUMPDEST PUSH1 0x40 MLOAD PUSH2 0x348 SWAP2 SWAP1 PUSH2 0x34FA JUMP JUMPDEST PUSH1 0x40 MLOAD DUP1 SWAP2 SUB SWAP1 RETURN JUMPDEST PUSH2 0x359 PUSH2 0xADE JUMP JUMPDEST STOP JUMPDEST PUSH2 0x363 PUSH2 0xB66 JUMP JUMPDEST STOP JUMPDEST PUSH2 0x36D PUSH2 0xBEC JUMP JUMPDEST PUSH1 0x40 MLOAD PUSH2 0x37A SWAP2 SWAP1 PUSH2 0x3156 JUMP JUMPDEST PUSH1 0x40 MLOAD DUP1 SWAP2 SUB SWAP1 RETURN JUMPDEST PUSH2 0x38B PUSH2 0xC16 JUMP JUMPDEST PUSH1 0x40 MLOAD PUSH2 0x398 SWAP2 SWAP1 PUSH2 0x31D8 JUMP JUMPDEST PUSH1 0x40 MLOAD DUP1 SWAP2 SUB SWAP1 RETURN JUMPDEST PUSH2 0x3BB PUSH1 0x4 DUP1 CALLDATASIZE SUB DUP2 ADD SWAP1 PUSH2 0x3B6 SWAP2 SWAP1 PUSH2 0x2BD3 JUMP JUMPDEST PUSH2 0xCA8 JUMP JUMPDEST STOP JUMPDEST PUSH2 0x3D7 PUSH1 0x4 DUP1 CALLDATASIZE SUB DUP2 ADD SWAP1 PUSH2 0x3D2 SWAP2 SWAP1 PUSH2 0x2B58 JUMP JUMPDEST PUSH2 0xCBE JUMP JUMPDEST STOP JUMPDEST PUSH2 0x3F3 PUSH1 0x4 DUP1 CALLDATASIZE SUB DUP2 ADD SWAP1 PUSH2 0x3EE SWAP2 SWAP1 PUSH2 0x2CF1 JUMP JUMPDEST PUSH2 0xD20 JUMP JUMPDEST PUSH1 0x40 MLOAD PUSH2 0x400 SWAP2 SWAP1 PUSH2 0x31D8 JUMP JUMPDEST PUSH1 0x40 MLOAD DUP1 SWAP2 SUB SWAP1 RETURN JUMPDEST PUSH2 0x423 PUSH1 0x4 DUP1 CALLDATASIZE SUB DUP2 ADD SWAP1 PUSH2 0x41E SWAP2 SWAP1 PUSH2 0x2C0F JUMP JUMPDEST PUSH2 0xD32 JUMP JUMPDEST STOP JUMPDEST PUSH2 0x43F PUSH1 0x4 DUP1 CALLDATASIZE SUB DUP2 ADD SWAP1 PUSH2 0x43A SWAP2 SWAP1 PUSH2 0x2ACD JUMP JUMPDEST PUSH2 0xE24 JUMP JUMPDEST PUSH1 0x40 MLOAD PUSH2 0x44C SWAP2 SWAP1 PUSH2 0x31BD JUMP JUMPDEST PUSH1 0x40 MLOAD DUP1 SWAP2 SUB SWAP1 RETURN JUMPDEST PUSH2 0x46F PUSH1 0x4 DUP1 CALLDATASIZE SUB DUP2 ADD SWAP1 PUSH2 0x46A SWAP2 SWAP1 PUSH2 0x2AA4 JUMP JUMPDEST PUSH2 0xEB8 JUMP JUMPDEST STOP JUMPDEST PUSH1 0x0 PUSH2 0x47C DUP3 PUSH2 0xFB0 JUMP JUMPDEST SWAP1 POP SWAP2 SWAP1 POP JUMP JUMPDEST PUSH1 0x60 PUSH1 0x0 DUP1 SLOAD PUSH2 0x492 SWAP1 PUSH2 0x3750 JUMP JUMPDEST DUP1 PUSH1 0x1F ADD PUSH1 0x20 DUP1 SWAP2 DIV MUL PUSH1 0x20 ADD PUSH1 0x40 MLOAD SWAP1 DUP2 ADD PUSH1 0x40 MSTORE DUP1 SWAP3 SWAP2 SWAP1 DUP2 DUP2 MSTORE PUSH1 0x20 ADD DUP3 DUP1 SLOAD PUSH2 0x4BE SWAP1 PUSH2 0x3750 JUMP JUMPDEST DUP1 ISZERO PUSH2 0x50B JUMPI DUP1 PUSH1 0x1F LT PUSH2 0x4E0 JUMPI PUSH2 0x100 DUP1 DUP4 SLOAD DIV MUL DUP4 MSTORE SWAP2 PUSH1 0x20 ADD SWAP2 PUSH2 0x50B JUMP JUMPDEST DUP3 ADD SWAP2 SWAP1 PUSH1 0x0 MSTORE PUSH1 0x20 PUSH1 0x0 KECCAK256 SWAP1 JUMPDEST DUP2 SLOAD DUP2 MSTORE SWAP1 PUSH1 0x1 ADD SWAP1 PUSH1 0x20 ADD DUP1 DUP4 GT PUSH2 0x4EE JUMPI DUP3 SWAP1 SUB PUSH1 0x1F AND DUP3 ADD SWAP2 JUMPDEST POP POP POP POP POP SWAP1 POP SWAP1 JUMP JUMPDEST PUSH1 0x0 PUSH2 0x520 DUP3 PUSH2 0x102A JUMP JUMPDEST PUSH2 0x55F JUMPI PUSH1 0x40 MLOAD PUSH32 0x8C379A000000000000000000000000000000000000000000000000000000000 DUP2 MSTORE PUSH1 0x4 ADD PUSH2 0x556 SWAP1 PUSH2 0x341A JUMP JUMPDEST PUSH1 0x40 MLOAD DUP1 SWAP2 SUB SWAP1 REVERT JUMPDEST PUSH1 0x4 PUSH1 0x0 DUP4 DUP2 MSTORE PUSH1 0x20 ADD SWAP1 DUP2 MSTORE PUSH1 0x20 ADD PUSH1 0x0 KECCAK256 PUSH1 0x0 SWAP1 SLOAD SWAP1 PUSH2 0x100 EXP SWAP1 DIV PUSH20 0xFFFFFFFFFFFFFFFFFFFFFFFFFFFFFFFFFFFFFFFF AND SWAP1 POP SWAP2 SWAP1 POP JUMP JUMPDEST PUSH1 0x0 PUSH2 0x5A5 DUP3 PUSH2 0x974 JUMP JUMPDEST SWAP1 POP DUP1 PUSH20 0xFFFFFFFFFFFFFFFFFFFFFFFFFFFFFFFFFFFFFFFF AND DUP4 PUSH20 0xFFFFFFFFFFFFFFFFFFFFFFFFFFFFFFFFFFFFFFFF AND EQ ISZERO PUSH2 0x616 JUMPI PUSH1 0x40 MLOAD PUSH32 0x8C379A000000000000000000000000000000000000000000000000000000000 DUP2 MSTORE PUSH1 0x4 ADD PUSH2 0x60D SWAP1 PUSH2 0x347A JUMP JUMPDEST PUSH1 0x40 MLOAD DUP1 SWAP2 SUB SWAP1 REVERT JUMPDEST DUP1 PUSH20 0xFFFFFFFFFFFFFFFFFFFFFFFFFFFFFFFFFFFFFFFF AND PUSH2 0x635 PUSH2 0x1096 JUMP JUMPDEST PUSH20 0xFFFFFFFFFFFFFFFFFFFFFFFFFFFFFFFFFFFFFFFF AND EQ DUP1 PUSH2 0x664 JUMPI POP PUSH2 0x663 DUP2 PUSH2 0x65E PUSH2 0x1096 JUMP JUMPDEST PUSH2 0xE24 JUMP JUMPDEST JUMPDEST PUSH2 0x6A3 JUMPI PUSH1 0x40 MLOAD PUSH32 0x8C379A000000000000000000000000000000000000000000000000000000000 DUP2 MSTORE PUSH1 0x4 ADD PUSH2 0x69A SWAP1 PUSH2 0x335A JUMP JUMPDEST PUSH1 0x40 MLOAD DUP1 SWAP2 SUB SWAP1 REVERT JUMPDEST PUSH2 0x6AD DUP4 DUP4 PUSH2 0x109E JUMP JUMPDEST POP POP POP JUMP JUMPDEST PUSH1 0x0 PUSH1 0x8 DUP1 SLOAD SWAP1 POP SWAP1 POP SWAP1 JUMP JUMPDEST PUSH2 0x6D0 PUSH2 0x6CA PUSH2 0x1096 JUMP JUMPDEST DUP3 PUSH2 0x1157 JUMP JUMPDEST PUSH2 0x70F JUMPI PUSH1 0x40 MLOAD PUSH32 0x8C379A000000000000000000000000000000000000000000000000000000000 DUP2 MSTORE PUSH1 0x4 ADD PUSH2 0x706 SWAP1 PUSH2 0x349A JUMP JUMPDEST PUSH1 0x40 MLOAD DUP1 SWAP2 SUB SWAP1 REVERT JUMPDEST PUSH2 0x71A DUP4 DUP4 DUP4 PUSH2 0x1235 JUMP JUMPDEST POP POP POP JUMP JUMPDEST PUSH1 0x0 PUSH2 0x72A DUP4 PUSH2 0xA26 JUMP JUMPDEST DUP3 LT PUSH2 0x76B JUMPI PUSH1 0x40 MLOAD PUSH32 0x8C379A000000000000000000000000000000000000000000000000000000000 DUP2 MSTORE PUSH1 0x4 ADD PUSH2 0x762 SWAP1 PUSH2 0x321A JUMP JUMPDEST PUSH1 0x40 MLOAD DUP1 SWAP2 SUB SWAP1 REVERT JUMPDEST PUSH1 0x6 PUSH1 0x0 DUP5 PUSH20 0xFFFFFFFFFFFFFFFFFFFFFFFFFFFFFFFFFFFFFFFF AND PUSH20 0xFFFFFFFFFFFFFFFFFFFFFFFFFFFFFFFFFFFFFFFF AND DUP2 MSTORE PUSH1 0x20 ADD SWAP1 DUP2 MSTORE PUSH1 0x20 ADD PUSH1 0x0 KECCAK256 PUSH1 0x0 DUP4 DUP2 MSTORE PUSH1 0x20 ADD SWAP1 DUP2 MSTORE PUSH1 0x20 ADD PUSH1 0x0 KECCAK256 SLOAD SWAP1 POP SWAP3 SWAP2 POP POP JUMP JUMPDEST PUSH2 0x7CC PUSH2 0x1096 JUMP JUMPDEST PUSH20 0xFFFFFFFFFFFFFFFFFFFFFFFFFFFFFFFFFFFFFFFF AND PUSH2 0x7EA PUSH2 0xBEC JUMP JUMPDEST PUSH20 0xFFFFFFFFFFFFFFFFFFFFFFFFFFFFFFFFFFFFFFFF AND EQ PUSH2 0x840 JUMPI PUSH1 0x40 MLOAD PUSH32 0x8C379A000000000000000000000000000000000000000000000000000000000 DUP2 MSTORE PUSH1 0x4 ADD PUSH2 0x837 SWAP1 PUSH2 0x343A JUMP JUMPDEST PUSH1 0x40 MLOAD DUP1 SWAP2 SUB SWAP1 REVERT JUMPDEST PUSH2 0x848 PUSH2 0x149C JUMP JUMPDEST JUMP JUMPDEST PUSH2 0x865 DUP4 DUP4 DUP4 PUSH1 0x40 MLOAD DUP1 PUSH1 0x20 ADD PUSH1 0x40 MSTORE DUP1 PUSH1 0x0 DUP2 MSTORE POP PUSH2 0xCBE JUMP JUMPDEST POP POP POP JUMP JUMPDEST PUSH2 0x87B PUSH2 0x875 PUSH2 0x1096 JUMP JUMPDEST DUP3 PUSH2 0x1157 JUMP JUMPDEST PUSH2 0x8BA JUMPI PUSH1 0x40 MLOAD PUSH32 0x8C379A000000000000000000000000000000000000000000000000000000000 DUP2 MSTORE PUSH1 0x4 ADD PUSH2 0x8B1 SWAP1 PUSH2 0x34DA JUMP JUMPDEST PUSH1 0x40 MLOAD DUP1 SWAP2 SUB SWAP1 REVERT JUMPDEST PUSH2 0x8C3 DUP2 PUSH2 0x153E JUMP JUMPDEST POP JUMP JUMPDEST PUSH1 0x0 PUSH2 0x8D0 PUSH2 0x6B2 JUMP JUMPDEST DUP3 LT PUSH2 0x911 JUMPI PUSH1 0x40 MLOAD PUSH32 0x8C379A000000000000000000000000000000000000000000000000000000000 DUP2 MSTORE PUSH1 0x4 ADD PUSH2 0x908 SWAP1 PUSH2 0x34BA JUMP JUMPDEST PUSH1 0x40 MLOAD DUP1 SWAP2 SUB SWAP1 REVERT JUMPDEST PUSH1 0x8 DUP3 DUP2 SLOAD DUP2 LT PUSH2 0x94B JUMPI PUSH32 0x4E487B7100000000000000000000000000000000000000000000000000000000 PUSH1 0x0 MSTORE PUSH1 0x32 PUSH1 0x4 MSTORE PUSH1 0x24 PUSH1 0x0 REVERT JUMPDEST SWAP1 PUSH1 0x0 MSTORE PUSH1 0x20 PUSH1 0x0 KECCAK256 ADD SLOAD SWAP1 POP SWAP2 SWAP1 POP JUMP JUMPDEST PUSH1 0x0 PUSH1 0xB PUSH1 0x0 SWAP1 SLOAD SWAP1 PUSH2 0x100 EXP SWAP1 DIV PUSH1 0xFF AND SWAP1 POP SWAP1 JUMP JUMPDEST PUSH1 0x0 DUP1 PUSH1 0x2 PUSH1 0x0 DUP5 DUP2 MSTORE PUSH1 0x20 ADD SWAP1 DUP2 MSTORE PUSH1 0x20 ADD PUSH1 0x0 KECCAK256 PUSH1 0x0 SWAP1 SLOAD SWAP1 PUSH2 0x100 EXP SWAP1 DIV PUSH20 0xFFFFFFFFFFFFFFFFFFFFFFFFFFFFFFFFFFFFFFFF AND SWAP1 POP PUSH1 0x0 PUSH20 0xFFFFFFFFFFFFFFFFFFFFFFFFFFFFFFFFFFFFFFFF AND DUP2 PUSH20 0xFFFFFFFFFFFFFFFFFFFFFFFFFFFFFFFFFFFFFFFF AND EQ ISZERO PUSH2 0xA1D JUMPI PUSH1 0x40 MLOAD PUSH32 0x8C379A000000000000000000000000000000000000000000000000000000000 DUP2 MSTORE PUSH1 0x4 ADD PUSH2 0xA14 SWAP1 PUSH2 0x339A JUMP JUMPDEST PUSH1 0x40 MLOAD DUP1 SWAP2 SUB SWAP1 REVERT JUMPDEST DUP1 SWAP2 POP POP SWAP2 SWAP1 POP JUMP JUMPDEST PUSH1 0x0 DUP1 PUSH20 0xFFFFFFFFFFFFFFFFFFFFFFFFFFFFFFFFFFFFFFFF AND DUP3 PUSH20 0xFFFFFFFFFFFFFFFFFFFFFFFFFFFFFFFFFFFFFFFF AND EQ ISZERO PUSH2 0xA97 JUMPI PUSH1 0x40 MLOAD PUSH32 0x8C379A000000000000000000000000000000000000000000000000000000000 DUP2 MSTORE PUSH1 0x4 ADD PUSH2 0xA8E SWAP1 PUSH2 0x337A JUMP JUMPDEST PUSH1 0x40 MLOAD DUP1 SWAP2 SUB SWAP1 REVERT JUMPDEST PUSH1 0x3 PUSH1 0x0 DUP4 PUSH20 0xFFFFFFFFFFFFFFFFFFFFFFFFFFFFFFFFFFFFFFFF AND PUSH20 0xFFFFFFFFFFFFFFFFFFFFFFFFFFFFFFFFFFFFFFFF AND DUP2 MSTORE PUSH1 0x20 ADD SWAP1 DUP2 MSTORE PUSH1 0x20 ADD PUSH1 0x0 KECCAK256 SLOAD SWAP1 POP SWAP2 SWAP1 POP JUMP JUMPDEST PUSH2 0xAE6 PUSH2 0x1096 JUMP JUMPDEST PUSH20 0xFFFFFFFFFFFFFFFFFFFFFFFFFFFFFFFFFFFFFFFF AND PUSH2 0xB04 PUSH2 0xBEC JUMP JUMPDEST PUSH20 0xFFFFFFFFFFFFFFFFFFFFFFFFFFFFFFFFFFFFFFFF AND EQ PUSH2 0xB5A JUMPI PUSH1 0x40 MLOAD PUSH32 0x8C379A000000000000000000000000000000000000000000000000000000000 DUP2 MSTORE PUSH1 0x4 ADD PUSH2 0xB51 SWAP1 PUSH2 0x343A JUMP JUMPDEST PUSH1 0x40 MLOAD DUP1 SWAP2 SUB SWAP1 REVERT JUMPDEST PUSH2 0xB64 PUSH1 0x0 PUSH2 0x154A JUMP JUMPDEST JUMP JUMPDEST PUSH2 0xB6E PUSH2 0x1096 JUMP JUMPDEST PUSH20 0xFFFFFFFFFFFFFFFFFFFFFFFFFFFFFFFFFFFFFFFF AND PUSH2 0xB8C PUSH2 0xBEC JUMP JUMPDEST PUSH20 0xFFFFFFFFFFFFFFFFFFFFFFFFFFFFFFFFFFFFFFFF AND EQ PUSH2 0xBE2 JUMPI PUSH1 0x40 MLOAD PUSH32 0x8C379A000000000000000000000000000000000000000000000000000000000 DUP2 MSTORE PUSH1 0x4 ADD PUSH2 0xBD9 SWAP1 PUSH2 0x343A JUMP JUMPDEST PUSH1 0x40 MLOAD DUP1 SWAP2 SUB SWAP1 REVERT JUMPDEST PUSH2 0xBEA PUSH2 0x1610 JUMP JUMPDEST JUMP JUMPDEST PUSH1 0x0 PUSH1 0xB PUSH1 0x1 SWAP1 SLOAD SWAP1 PUSH2 0x100 EXP SWAP1 DIV PUSH20 0xFFFFFFFFFFFFFFFFFFFFFFFFFFFFFFFFFFFFFFFF AND SWAP1 POP SWAP1 JUMP JUMPDEST PUSH1 0x60 PUSH1 0x1 DUP1 SLOAD PUSH2 0xC25 SWAP1 PUSH2 0x3750 JUMP JUMPDEST DUP1 PUSH1 0x1F ADD PUSH1 0x20 DUP1 SWAP2 DIV MUL PUSH1 0x20 ADD PUSH1 0x40 MLOAD SWAP1 DUP2 ADD PUSH1 0x40 MSTORE DUP1 SWAP3 SWAP2 SWAP1 DUP2 DUP2 MSTORE PUSH1 0x20 ADD DUP3 DUP1 SLOAD PUSH2 0xC51 SWAP1 PUSH2 0x3750 JUMP JUMPDEST DUP1 ISZERO PUSH2 0xC9E JUMPI DUP1 PUSH1 0x1F LT PUSH2 0xC73 JUMPI PUSH2 0x100 DUP1 DUP4 SLOAD DIV MUL DUP4 MSTORE SWAP2 PUSH1 0x20 ADD SWAP2 PUSH2 0xC9E JUMP JUMPDEST DUP3 ADD SWAP2 SWAP1 PUSH1 0x0 MSTORE PUSH1 0x20 PUSH1 0x0 KECCAK256 SWAP1 JUMPDEST DUP2 SLOAD DUP2 MSTORE SWAP1 PUSH1 0x1 ADD SWAP1 PUSH1 0x20 ADD DUP1 DUP4 GT PUSH2 0xC81 JUMPI DUP3 SWAP1 SUB PUSH1 0x1F AND DUP3 ADD SWAP2 JUMPDEST POP POP POP POP POP SWAP1 POP SWAP1 JUMP JUMPDEST PUSH2 0xCBA PUSH2 0xCB3 PUSH2 0x1096 JUMP JUMPDEST DUP4 DUP4 PUSH2 0x16B3 JUMP JUMPDEST POP POP JUMP JUMPDEST PUSH2 0xCCF PUSH2 0xCC9 PUSH2 0x1096 JUMP JUMPDEST DUP4 PUSH2 0x1157 JUMP JUMPDEST PUSH2 0xD0E JUMPI PUSH1 0x40 MLOAD PUSH32 0x8C379A000000000000000000000000000000000000000000000000000000000 DUP2 MSTORE PUSH1 0x4 ADD PUSH2 0xD05 SWAP1 PUSH2 0x349A JUMP JUMPDEST PUSH1 0x40 MLOAD DUP1 SWAP2 SUB SWAP1 REVERT JUMPDEST PUSH2 0xD1A DUP5 DUP5 DUP5 DUP5 PUSH2 0x1820 JUMP JUMPDEST POP POP POP POP JUMP JUMPDEST PUSH1 0x60 PUSH2 0xD2B DUP3 PUSH2 0x187C JUMP JUMPDEST SWAP1 POP SWAP2 SWAP1 POP JUMP JUMPDEST PUSH2 0xD3A PUSH2 0x1096 JUMP JUMPDEST PUSH20 0xFFFFFFFFFFFFFFFFFFFFFFFFFFFFFFFFFFFFFFFF AND PUSH2 0xD58 PUSH2 0xBEC JUMP JUMPDEST PUSH20 0xFFFFFFFFFFFFFFFFFFFFFFFFFFFFFFFFFFFFFFFF AND EQ PUSH2 0xDAE JUMPI PUSH1 0x40 MLOAD PUSH32 0x8C379A000000000000000000000000000000000000000000000000000000000 DUP2 MSTORE PUSH1 0x4 ADD PUSH2 0xDA5 SWAP1 PUSH2 0x343A JUMP JUMPDEST PUSH1 0x40 MLOAD DUP1 SWAP2 SUB SWAP1 REVERT JUMPDEST PUSH1 0x0 PUSH2 0xDBA PUSH1 0xC PUSH2 0x19CE JUMP JUMPDEST SWAP1 POP PUSH1 0xD SLOAD DUP2 GT ISZERO PUSH2 0xE01 JUMPI PUSH1 0x40 MLOAD PUSH32 0x8C379A000000000000000000000000000000000000000000000000000000000 DUP2 MSTORE PUSH1 0x4 ADD PUSH2 0xDF8 SWAP1 PUSH2 0x32FA JUMP JUMPDEST PUSH1 0x40 MLOAD DUP1 SWAP2 SUB SWAP1 REVERT JUMPDEST PUSH2 0xE0B PUSH1 0xC PUSH2 0x19DC JUMP JUMPDEST PUSH2 0xE15 DUP4 DUP3 PUSH2 0x19F2 JUMP JUMPDEST PUSH2 0xE1F DUP2 DUP4 PUSH2 0x1A10 JUMP JUMPDEST POP POP POP JUMP JUMPDEST PUSH1 0x0 PUSH1 0x5 PUSH1 0x0 DUP5 PUSH20 0xFFFFFFFFFFFFFFFFFFFFFFFFFFFFFFFFFFFFFFFF AND PUSH20 0xFFFFFFFFFFFFFFFFFFFFFFFFFFFFFFFFFFFFFFFF AND DUP2 MSTORE PUSH1 0x20 ADD SWAP1 DUP2 MSTORE PUSH1 0x20 ADD PUSH1 0x0 KECCAK256 PUSH1 0x0 DUP4 PUSH20 0xFFFFFFFFFFFFFFFFFFFFFFFFFFFFFFFFFFFFFFFF AND PUSH20 0xFFFFFFFFFFFFFFFFFFFFFFFFFFFFFFFFFFFFFFFF AND DUP2 MSTORE PUSH1 0x20 ADD SWAP1 DUP2 MSTORE PUSH1 0x20 ADD PUSH1 0x0 KECCAK256 PUSH1 0x0 SWAP1 SLOAD SWAP1 PUSH2 0x100 EXP SWAP1 DIV PUSH1 0xFF AND SWAP1 POP SWAP3 SWAP2 POP POP JUMP JUMPDEST PUSH2 0xEC0 PUSH2 0x1096 JUMP JUMPDEST PUSH20 0xFFFFFFFFFFFFFFFFFFFFFFFFFFFFFFFFFFFFFFFF AND PUSH2 0xEDE PUSH2 0xBEC JUMP JUMPDEST PUSH20 0xFFFFFFFFFFFFFFFFFFFFFFFFFFFFFFFFFFFFFFFF AND EQ PUSH2 0xF34 JUMPI PUSH1 0x40 MLOAD PUSH32 0x8C379A000000000000000000000000000000000000000000000000000000000 DUP2 MSTORE PUSH1 0x4 ADD PUSH2 0xF2B SWAP1 PUSH2 0x343A JUMP JUMPDEST PUSH1 0x40 MLOAD DUP1 SWAP2 SUB SWAP1 REVERT JUMPDEST PUSH1 0x0 PUSH20 0xFFFFFFFFFFFFFFFFFFFFFFFFFFFFFFFFFFFFFFFF AND DUP2 PUSH20 0xFFFFFFFFFFFFFFFFFFFFFFFFFFFFFFFFFFFFFFFF AND EQ ISZERO PUSH2 0xFA4 JUMPI PUSH1 0x40 MLOAD PUSH32 0x8C379A000000000000000000000000000000000000000000000000000000000 DUP2 MSTORE PUSH1 0x4 ADD PUSH2 0xF9B SWAP1 PUSH2 0x325A JUMP JUMPDEST PUSH1 0x40 MLOAD DUP1 SWAP2 SUB SWAP1 REVERT JUMPDEST PUSH2 0xFAD DUP2 PUSH2 0x154A JUMP JUMPDEST POP JUMP JUMPDEST PUSH1 0x0 PUSH32 0x780E9D6300000000000000000000000000000000000000000000000000000000 PUSH28 0xFFFFFFFFFFFFFFFFFFFFFFFFFFFFFFFFFFFFFFFFFFFFFFFFFFFFFFFF NOT AND DUP3 PUSH28 0xFFFFFFFFFFFFFFFFFFFFFFFFFFFFFFFFFFFFFFFFFFFFFFFFFFFFFFFF NOT AND EQ DUP1 PUSH2 0x1023 JUMPI POP PUSH2 0x1022 DUP3 PUSH2 0x1A84 JUMP JUMPDEST JUMPDEST SWAP1 POP SWAP2 SWAP1 POP JUMP JUMPDEST PUSH1 0x0 DUP1 PUSH20 0xFFFFFFFFFFFFFFFFFFFFFFFFFFFFFFFFFFFFFFFF AND PUSH1 0x2 PUSH1 0x0 DUP5 DUP2 MSTORE PUSH1 0x20 ADD SWAP1 DUP2 MSTORE PUSH1 0x20 ADD PUSH1 0x0 KECCAK256 PUSH1 0x0 SWAP1 SLOAD SWAP1 PUSH2 0x100 EXP SWAP1 DIV PUSH20 0xFFFFFFFFFFFFFFFFFFFFFFFFFFFFFFFFFFFFFFFF AND PUSH20 0xFFFFFFFFFFFFFFFFFFFFFFFFFFFFFFFFFFFFFFFF AND EQ ISZERO SWAP1 POP SWAP2 SWAP1 POP JUMP JUMPDEST PUSH1 0x0 CALLER SWAP1 POP SWAP1 JUMP JUMPDEST DUP2 PUSH1 0x4 PUSH1 0x0 DUP4 DUP2 MSTORE PUSH1 0x20 ADD SWAP1 DUP2 MSTORE PUSH1 0x20 ADD PUSH1 0x0 KECCAK256 PUSH1 0x0 PUSH2 0x100 EXP DUP2 SLOAD DUP2 PUSH20 0xFFFFFFFFFFFFFFFFFFFFFFFFFFFFFFFFFFFFFFFF MUL NOT AND SWAP1 DUP4 PUSH20 0xFFFFFFFFFFFFFFFFFFFFFFFFFFFFFFFFFFFFFFFF AND MUL OR SWAP1 SSTORE POP DUP1 DUP3 PUSH20 0xFFFFFFFFFFFFFFFFFFFFFFFFFFFFFFFFFFFFFFFF AND PUSH2 0x1111 DUP4 PUSH2 0x974 JUMP JUMPDEST PUSH20 0xFFFFFFFFFFFFFFFFFFFFFFFFFFFFFFFFFFFFFFFF AND PUSH32 0x8C5BE1E5EBEC7D5BD14F71427D1E84F3DD0314C0F7B2291E5B200AC8C7C3B925 PUSH1 0x40 MLOAD PUSH1 0x40 MLOAD DUP1 SWAP2 SUB SWAP1 LOG4 POP POP JUMP JUMPDEST PUSH1 0x0 PUSH2 0x1162 DUP3 PUSH2 0x102A JUMP JUMPDEST PUSH2 0x11A1 JUMPI PUSH1 0x40 MLOAD PUSH32 0x8C379A000000000000000000000000000000000000000000000000000000000 DUP2 MSTORE PUSH1 0x4 ADD PUSH2 0x1198 SWAP1 PUSH2 0x331A JUMP JUMPDEST PUSH1 0x40 MLOAD DUP1 SWAP2 SUB SWAP1 REVERT JUMPDEST PUSH1 0x0 PUSH2 0x11AC DUP4 PUSH2 0x974 JUMP JUMPDEST SWAP1 POP DUP1 PUSH20 0xFFFFFFFFFFFFFFFFFFFFFFFFFFFFFFFFFFFFFFFF AND DUP5 PUSH20 0xFFFFFFFFFFFFFFFFFFFFFFFFFFFFFFFFFFFFFFFF AND EQ DUP1 PUSH2 0x11EE JUMPI POP PUSH2 0x11ED DUP2 DUP6 PUSH2 0xE24 JUMP JUMPDEST JUMPDEST DUP1 PUSH2 0x122C JUMPI POP DUP4 PUSH20 0xFFFFFFFFFFFFFFFFFFFFFFFFFFFFFFFFFFFFFFFF AND PUSH2 0x1214 DUP5 PUSH2 0x515 JUMP JUMPDEST PUSH20 0xFFFFFFFFFFFFFFFFFFFFFFFFFFFFFFFFFFFFFFFF AND EQ JUMPDEST SWAP2 POP POP SWAP3 SWAP2 POP POP JUMP JUMPDEST DUP3 PUSH20 0xFFFFFFFFFFFFFFFFFFFFFFFFFFFFFFFFFFFFFFFF AND PUSH2 0x1255 DUP3 PUSH2 0x974 JUMP JUMPDEST PUSH20 0xFFFFFFFFFFFFFFFFFFFFFFFFFFFFFFFFFFFFFFFF AND EQ PUSH2 0x12AB JUMPI PUSH1 0x40 MLOAD PUSH32 0x8C379A000000000000000000000000000000000000000000000000000000000 DUP2 MSTORE PUSH1 0x4 ADD PUSH2 0x12A2 SWAP1 PUSH2 0x327A JUMP JUMPDEST PUSH1 0x40 MLOAD DUP1 SWAP2 SUB SWAP1 REVERT JUMPDEST PUSH1 0x0 PUSH20 0xFFFFFFFFFFFFFFFFFFFFFFFFFFFFFFFFFFFFFFFF AND DUP3 PUSH20 0xFFFFFFFFFFFFFFFFFFFFFFFFFFFFFFFFFFFFFFFF AND EQ ISZERO PUSH2 0x131B JUMPI PUSH1 0x40 MLOAD PUSH32 0x8C379A000000000000000000000000000000000000000000000000000000000 DUP2 MSTORE PUSH1 0x4 ADD PUSH2 0x1312 SWAP1 PUSH2 0x32BA JUMP JUMPDEST PUSH1 0x40 MLOAD DUP1 SWAP2 SUB SWAP1 REVERT JUMPDEST PUSH2 0x1326 DUP4 DUP4 DUP4 PUSH2 0x1B66 JUMP JUMPDEST PUSH2 0x1331 PUSH1 0x0 DUP3 PUSH2 0x109E JUMP JUMPDEST PUSH1 0x1 PUSH1 0x3 PUSH1 0x0 DUP6 PUSH20 0xFFFFFFFFFFFFFFFFFFFFFFFFFFFFFFFFFFFFFFFF AND PUSH20 0xFFFFFFFFFFFFFFFFFFFFFFFFFFFFFFFFFFFFFFFF AND DUP2 MSTORE PUSH1 0x20 ADD SWAP1 DUP2 MSTORE PUSH1 0x20 ADD PUSH1 0x0 KECCAK256 PUSH1 0x0 DUP3 DUP3 SLOAD PUSH2 0x1381 SWAP2 SWAP1 PUSH2 0x3666 JUMP JUMPDEST SWAP3 POP POP DUP2 SWAP1 SSTORE POP PUSH1 0x1 PUSH1 0x3 PUSH1 0x0 DUP5 PUSH20 0xFFFFFFFFFFFFFFFFFFFFFFFFFFFFFFFFFFFFFFFF AND PUSH20 0xFFFFFFFFFFFFFFFFFFFFFFFFFFFFFFFFFFFFFFFF AND DUP2 MSTORE PUSH1 0x20 ADD SWAP1 DUP2 MSTORE PUSH1 0x20 ADD PUSH1 0x0 KECCAK256 PUSH1 0x0 DUP3 DUP3 SLOAD PUSH2 0x13D8 SWAP2 SWAP1 PUSH2 0x35DF JUMP JUMPDEST SWAP3 POP POP DUP2 SWAP1 SSTORE POP DUP2 PUSH1 0x2 PUSH1 0x0 DUP4 DUP2 MSTORE PUSH1 0x20 ADD SWAP1 DUP2 MSTORE PUSH1 0x20 ADD PUSH1 0x0 KECCAK256 PUSH1 0x0 PUSH2 0x100 EXP DUP2 SLOAD DUP2 PUSH20 0xFFFFFFFFFFFFFFFFFFFFFFFFFFFFFFFFFFFFFFFF MUL NOT AND SWAP1 DUP4 PUSH20 0xFFFFFFFFFFFFFFFFFFFFFFFFFFFFFFFFFFFFFFFF AND MUL OR SWAP1 SSTORE POP DUP1 DUP3 PUSH20 0xFFFFFFFFFFFFFFFFFFFFFFFFFFFFFFFFFFFFFFFF AND DUP5 PUSH20 0xFFFFFFFFFFFFFFFFFFFFFFFFFFFFFFFFFFFFFFFF AND PUSH32 0xDDF252AD1BE2C89B69C2B068FC378DAA952BA7F163C4A11628F55A4DF523B3EF PUSH1 0x40 MLOAD PUSH1 0x40 MLOAD DUP1 SWAP2 SUB SWAP1 LOG4 PUSH2 0x1497 DUP4 DUP4 DUP4 PUSH2 0x1BBE JUMP JUMPDEST POP POP POP JUMP JUMPDEST PUSH2 0x14A4 PUSH2 0x95D JUMP JUMPDEST PUSH2 0x14E3 JUMPI PUSH1 0x40 MLOAD PUSH32 0x8C379A000000000000000000000000000000000000000000000000000000000 DUP2 MSTORE PUSH1 0x4 ADD PUSH2 0x14DA SWAP1 PUSH2 0x31FA JUMP JUMPDEST PUSH1 0x40 MLOAD DUP1 SWAP2 SUB SWAP1 REVERT JUMPDEST PUSH1 0x0 PUSH1 0xB PUSH1 0x0 PUSH2 0x100 EXP DUP2 SLOAD DUP2 PUSH1 0xFF MUL NOT AND SWAP1 DUP4 ISZERO ISZERO MUL OR SWAP1 SSTORE POP PUSH32 0x5DB9EE0A495BF2E6FF9C91A7834C1BA4FDD244A5E8AA4E537BD38AEAE4B073AA PUSH2 0x1527 PUSH2 0x1096 JUMP JUMPDEST PUSH1 0x40 MLOAD PUSH2 0x1534 SWAP2 SWAP1 PUSH2 0x3156 JUMP JUMPDEST PUSH1 0x40 MLOAD DUP1 SWAP2 SUB SWAP1 LOG1 JUMP JUMPDEST PUSH2 0x1547 DUP2 PUSH2 0x1BC3 JUMP JUMPDEST POP JUMP JUMPDEST PUSH1 0x0 PUSH1 0xB PUSH1 0x1 SWAP1 SLOAD SWAP1 PUSH2 0x100 EXP SWAP1 DIV PUSH20 0xFFFFFFFFFFFFFFFFFFFFFFFFFFFFFFFFFFFFFFFF AND SWAP1 POP DUP2 PUSH1 0xB PUSH1 0x1 PUSH2 0x100 EXP DUP2 SLOAD DUP2 PUSH20 0xFFFFFFFFFFFFFFFFFFFFFFFFFFFFFFFFFFFFFFFF MUL NOT AND SWAP1 DUP4 PUSH20 0xFFFFFFFFFFFFFFFFFFFFFFFFFFFFFFFFFFFFFFFF AND MUL OR SWAP1 SSTORE POP DUP2 PUSH20 0xFFFFFFFFFFFFFFFFFFFFFFFFFFFFFFFFFFFFFFFF AND DUP2 PUSH20 0xFFFFFFFFFFFFFFFFFFFFFFFFFFFFFFFFFFFFFFFF AND PUSH32 0x8BE0079C531659141344CD1FD0A4F28419497F9722A3DAAFE3B4186F6B6457E0 PUSH1 0x40 MLOAD PUSH1 0x40 MLOAD DUP1 SWAP2 SUB SWAP1 LOG3 POP POP JUMP JUMPDEST PUSH2 0x1618 PUSH2 0x95D JUMP JUMPDEST ISZERO PUSH2 0x1658 JUMPI PUSH1 0x40 MLOAD PUSH32 0x8C379A000000000000000000000000000000000000000000000000000000000 DUP2 MSTORE PUSH1 0x4 ADD PUSH2 0x164F SWAP1 PUSH2 0x333A JUMP JUMPDEST PUSH1 0x40 MLOAD DUP1 SWAP2 SUB SWAP1 REVERT JUMPDEST PUSH1 0x1 PUSH1 0xB PUSH1 0x0 PUSH2 0x100 EXP DUP2 SLOAD DUP2 PUSH1 0xFF MUL NOT AND SWAP1 DUP4 ISZERO ISZERO MUL OR SWAP1 SSTORE POP PUSH32 0x62E78CEA01BEE320CD4E420270B5EA74000D11B0C9F74754EBDBFC544B05A258 PUSH2 0x169C PUSH2 0x1096 JUMP JUMPDEST PUSH1 0x40 MLOAD PUSH2 0x16A9 SWAP2 SWAP1 PUSH2 0x3156 JUMP JUMPDEST PUSH1 0x40 MLOAD DUP1 SWAP2 SUB SWAP1 LOG1 JUMP JUMPDEST DUP2 PUSH20 0xFFFFFFFFFFFFFFFFFFFFFFFFFFFFFFFFFFFFFFFF AND DUP4 PUSH20 0xFFFFFFFFFFFFFFFFFFFFFFFFFFFFFFFFFFFFFFFF AND EQ ISZERO PUSH2 0x1722 JUMPI PUSH1 0x40 MLOAD PUSH32 0x8C379A000000000000000000000000000000000000000000000000000000000 DUP2 MSTORE PUSH1 0x4 ADD PUSH2 0x1719 SWAP1 PUSH2 0x32DA JUMP JUMPDEST PUSH1 0x40 MLOAD DUP1 SWAP2 SUB SWAP1 REVERT JUMPDEST DUP1 PUSH1 0x5 PUSH1 0x0 DUP6 PUSH20 0xFFFFFFFFFFFFFFFFFFFFFFFFFFFFFFFFFFFFFFFF AND PUSH20 0xFFFFFFFFFFFFFFFFFFFFFFFFFFFFFFFFFFFFFFFF AND DUP2 MSTORE PUSH1 0x20 ADD SWAP1 DUP2 MSTORE PUSH1 0x20 ADD PUSH1 0x0 KECCAK256 PUSH1 0x0 DUP5 PUSH20 0xFFFFFFFFFFFFFFFFFFFFFFFFFFFFFFFFFFFFFFFF AND PUSH20 0xFFFFFFFFFFFFFFFFFFFFFFFFFFFFFFFFFFFFFFFF AND DUP2 MSTORE PUSH1 0x20 ADD SWAP1 DUP2 MSTORE PUSH1 0x20 ADD PUSH1 0x0 KECCAK256 PUSH1 0x0 PUSH2 0x100 EXP DUP2 SLOAD DUP2 PUSH1 0xFF MUL NOT AND SWAP1 DUP4 ISZERO ISZERO MUL OR SWAP1 SSTORE POP DUP2 PUSH20 0xFFFFFFFFFFFFFFFFFFFFFFFFFFFFFFFFFFFFFFFF AND DUP4 PUSH20 0xFFFFFFFFFFFFFFFFFFFFFFFFFFFFFFFFFFFFFFFF AND PUSH32 0x17307EAB39AB6107E8899845AD3D59BD9653F200F220920489CA2B5937696C31 DUP4 PUSH1 0x40 MLOAD PUSH2 0x1813 SWAP2 SWAP1 PUSH2 0x31BD JUMP JUMPDEST PUSH1 0x40 MLOAD DUP1 SWAP2 SUB SWAP1 LOG3 POP POP POP JUMP JUMPDEST PUSH2 0x182B DUP5 DUP5 DUP5 PUSH2 0x1235 JUMP JUMPDEST PUSH2 0x1837 DUP5 DUP5 DUP5 DUP5 PUSH2 0x1C16 JUMP JUMPDEST PUSH2 0x1876 JUMPI PUSH1 0x40 MLOAD PUSH32 0x8C379A000000000000000000000000000000000000000000000000000000000 DUP2 MSTORE PUSH1 0x4 ADD PUSH2 0x186D SWAP1 PUSH2 0x323A JUMP JUMPDEST PUSH1 0x40 MLOAD DUP1 SWAP2 SUB SWAP1 REVERT JUMPDEST POP POP POP POP JUMP JUMPDEST PUSH1 0x60 PUSH2 0x1887 DUP3 PUSH2 0x102A JUMP JUMPDEST PUSH2 0x18C6 JUMPI PUSH1 0x40 MLOAD PUSH32 0x8C379A000000000000000000000000000000000000000000000000000000000 DUP2 MSTORE PUSH1 0x4 ADD PUSH2 0x18BD SWAP1 PUSH2 0x33FA JUMP JUMPDEST PUSH1 0x40 MLOAD DUP1 SWAP2 SUB SWAP1 REVERT JUMPDEST PUSH1 0x0 PUSH1 0xA PUSH1 0x0 DUP5 DUP2 MSTORE PUSH1 0x20 ADD SWAP1 DUP2 MSTORE PUSH1 0x20 ADD PUSH1 0x0 KECCAK256 DUP1 SLOAD PUSH2 0x18E6 SWAP1 PUSH2 0x3750 JUMP JUMPDEST DUP1 PUSH1 0x1F ADD PUSH1 0x20 DUP1 SWAP2 DIV MUL PUSH1 0x20 ADD PUSH1 0x40 MLOAD SWAP1 DUP2 ADD PUSH1 0x40 MSTORE DUP1 SWAP3 SWAP2 SWAP1 DUP2 DUP2 MSTORE PUSH1 0x20 ADD DUP3 DUP1 SLOAD PUSH2 0x1912 SWAP1 PUSH2 0x3750 JUMP JUMPDEST DUP1 ISZERO PUSH2 0x195F JUMPI DUP1 PUSH1 0x1F LT PUSH2 0x1934 JUMPI PUSH2 0x100 DUP1 DUP4 SLOAD DIV MUL DUP4 MSTORE SWAP2 PUSH1 0x20 ADD SWAP2 PUSH2 0x195F JUMP JUMPDEST DUP3 ADD SWAP2 SWAP1 PUSH1 0x0 MSTORE PUSH1 0x20 PUSH1 0x0 KECCAK256 SWAP1 JUMPDEST DUP2 SLOAD DUP2 MSTORE SWAP1 PUSH1 0x1 ADD SWAP1 PUSH1 0x20 ADD DUP1 DUP4 GT PUSH2 0x1942 JUMPI DUP3 SWAP1 SUB PUSH1 0x1F AND DUP3 ADD SWAP2 JUMPDEST POP POP POP POP POP SWAP1 POP PUSH1 0x0 PUSH2 0x1970 PUSH2 0x1DAD JUMP JUMPDEST SWAP1 POP PUSH1 0x0 DUP2 MLOAD EQ ISZERO PUSH2 0x1986 JUMPI DUP2 SWAP3 POP POP POP PUSH2 0x19C9 JUMP JUMPDEST PUSH1 0x0 DUP3 MLOAD GT ISZERO PUSH2 0x19BB JUMPI DUP1 DUP3 PUSH1 0x40 MLOAD PUSH1 0x20 ADD PUSH2 0x19A3 SWAP3 SWAP2 SWAP1 PUSH2 0x3132 JUMP JUMPDEST PUSH1 0x40 MLOAD PUSH1 0x20 DUP2 DUP4 SUB SUB DUP2 MSTORE SWAP1 PUSH1 0x40 MSTORE SWAP3 POP POP POP PUSH2 0x19C9 JUMP JUMPDEST PUSH2 0x19C4 DUP5 PUSH2 0x1DC4 JUMP JUMPDEST SWAP3 POP POP POP JUMPDEST SWAP2 SWAP1 POP JUMP JUMPDEST PUSH1 0x0 DUP2 PUSH1 0x0 ADD SLOAD SWAP1 POP SWAP2 SWAP1 POP JUMP JUMPDEST PUSH1 0x1 DUP2 PUSH1 0x0 ADD PUSH1 0x0 DUP3 DUP3 SLOAD ADD SWAP3 POP POP DUP2 SWAP1 SSTORE POP POP JUMP JUMPDEST PUSH2 0x1A0C DUP3 DUP3 PUSH1 0x40 MLOAD DUP1 PUSH1 0x20 ADD PUSH1 0x40 MSTORE DUP1 PUSH1 0x0 DUP2 MSTORE POP PUSH2 0x1E6B JUMP JUMPDEST POP POP JUMP JUMPDEST PUSH2 0x1A19 DUP3 PUSH2 0x102A JUMP JUMPDEST PUSH2 0x1A58 JUMPI PUSH1 0x40 MLOAD PUSH32 0x8C379A000000000000000000000000000000000000000000000000000000000 DUP2 MSTORE PUSH1 0x4 ADD PUSH2 0x1A4F SWAP1 PUSH2 0x33BA JUMP JUMPDEST PUSH1 0x40 MLOAD DUP1 SWAP2 SUB SWAP1 REVERT JUMPDEST DUP1 PUSH1 0xA PUSH1 0x0 DUP5 DUP2 MSTORE PUSH1 0x20 ADD SWAP1 DUP2 MSTORE PUSH1 0x20 ADD PUSH1 0x0 KECCAK256 SWAP1 DUP1 MLOAD SWAP1 PUSH1 0x20 ADD SWAP1 PUSH2 0x1A7F SWAP3 SWAP2 SWAP1 PUSH2 0x2888 JUMP JUMPDEST POP POP POP JUMP JUMPDEST PUSH1 0x0 PUSH32 0x80AC58CD00000000000000000000000000000000000000000000000000000000 PUSH28 0xFFFFFFFFFFFFFFFFFFFFFFFFFFFFFFFFFFFFFFFFFFFFFFFFFFFFFFFF NOT AND DUP3 PUSH28 0xFFFFFFFFFFFFFFFFFFFFFFFFFFFFFFFFFFFFFFFFFFFFFFFFFFFFFFFF NOT AND EQ DUP1 PUSH2 0x1B4F JUMPI POP PUSH32 0x5B5E139F00000000000000000000000000000000000000000000000000000000 PUSH28 0xFFFFFFFFFFFFFFFFFFFFFFFFFFFFFFFFFFFFFFFFFFFFFFFFFFFFFFFF NOT AND DUP3 PUSH28 0xFFFFFFFFFFFFFFFFFFFFFFFFFFFFFFFFFFFFFFFFFFFFFFFFFFFFFFFF NOT AND EQ JUMPDEST DUP1 PUSH2 0x1B5F JUMPI POP PUSH2 0x1B5E DUP3 PUSH2 0x1EC6 JUMP JUMPDEST JUMPDEST SWAP1 POP SWAP2 SWAP1 POP JUMP JUMPDEST PUSH2 0x1B6E PUSH2 0x95D JUMP JUMPDEST ISZERO PUSH2 0x1BAE JUMPI PUSH1 0x40 MLOAD PUSH32 0x8C379A000000000000000000000000000000000000000000000000000000000 DUP2 MSTORE PUSH1 0x4 ADD PUSH2 0x1BA5 SWAP1 PUSH2 0x333A JUMP JUMPDEST PUSH1 0x40 MLOAD DUP1 SWAP2 SUB SWAP1 REVERT JUMPDEST PUSH2 0x1BB9 DUP4 DUP4 DUP4 PUSH2 0x1F30 JUMP JUMPDEST POP POP POP JUMP JUMPDEST POP POP POP JUMP JUMPDEST PUSH2 0x1BCC DUP2 PUSH2 0x2044 JUMP JUMPDEST PUSH1 0x0 PUSH1 0xA PUSH1 0x0 DUP4 DUP2 MSTORE PUSH1 0x20 ADD SWAP1 DUP2 MSTORE PUSH1 0x20 ADD PUSH1 0x0 KECCAK256 DUP1 SLOAD PUSH2 0x1BEC SWAP1 PUSH2 0x3750 JUMP JUMPDEST SWAP1 POP EQ PUSH2 0x1C13 JUMPI PUSH1 0xA PUSH1 0x0 DUP3 DUP2 MSTORE PUSH1 0x20 ADD SWAP1 DUP2 MSTORE PUSH1 0x20 ADD PUSH1 0x0 KECCAK256 PUSH1 0x0 PUSH2 0x1C12 SWAP2 SWAP1 PUSH2 0x290E JUMP JUMPDEST JUMPDEST POP JUMP JUMPDEST PUSH1 0x0 PUSH2 0x1C37 DUP5 PUSH20 0xFFFFFFFFFFFFFFFFFFFFFFFFFFFFFFFFFFFFFFFF AND PUSH2 0x2161 JUMP JUMPDEST ISZERO PUSH2 0x1DA0 JUMPI DUP4 PUSH20 0xFFFFFFFFFFFFFFFFFFFFFFFFFFFFFFFFFFFFFFFF AND PUSH4 0x150B7A02 PUSH2 0x1C60 PUSH2 0x1096 JUMP JUMPDEST DUP8 DUP7 DUP7 PUSH1 0x40 MLOAD DUP6 PUSH4 0xFFFFFFFF AND PUSH1 0xE0 SHL DUP2 MSTORE PUSH1 0x4 ADD PUSH2 0x1C82 SWAP5 SWAP4 SWAP3 SWAP2 SWAP1 PUSH2 0x3171 JUMP JUMPDEST PUSH1 0x20 PUSH1 0x40 MLOAD DUP1 DUP4 SUB DUP2 PUSH1 0x0 DUP8 DUP1 EXTCODESIZE ISZERO DUP1 ISZERO PUSH2 0x1C9C JUMPI PUSH1 0x0 DUP1 REVERT JUMPDEST POP GAS CALL SWAP3 POP POP POP DUP1 ISZERO PUSH2 0x1CCD JUMPI POP PUSH1 0x40 MLOAD RETURNDATASIZE PUSH1 0x1F NOT PUSH1 0x1F DUP3 ADD AND DUP3 ADD DUP1 PUSH1 0x40 MSTORE POP DUP2 ADD SWAP1 PUSH2 0x1CCA SWAP2 SWAP1 PUSH2 0x2CC8 JUMP JUMPDEST PUSH1 0x1 JUMPDEST PUSH2 0x1D50 JUMPI RETURNDATASIZE DUP1 PUSH1 0x0 DUP2 EQ PUSH2 0x1CFD JUMPI PUSH1 0x40 MLOAD SWAP2 POP PUSH1 0x1F NOT PUSH1 0x3F RETURNDATASIZE ADD AND DUP3 ADD PUSH1 0x40 MSTORE RETURNDATASIZE DUP3 MSTORE RETURNDATASIZE PUSH1 0x0 PUSH1 0x20 DUP5 ADD RETURNDATACOPY PUSH2 0x1D02 JUMP JUMPDEST PUSH1 0x60 SWAP2 POP JUMPDEST POP PUSH1 0x0 DUP2 MLOAD EQ ISZERO PUSH2 0x1D48 JUMPI PUSH1 0x40 MLOAD PUSH32 0x8C379A000000000000000000000000000000000000000000000000000000000 DUP2 MSTORE PUSH1 0x4 ADD PUSH2 0x1D3F SWAP1 PUSH2 0x323A JUMP JUMPDEST PUSH1 0x40 MLOAD DUP1 SWAP2 SUB SWAP1 REVERT JUMPDEST DUP1 MLOAD DUP2 PUSH1 0x20 ADD REVERT JUMPDEST PUSH4 0x150B7A02 PUSH1 0xE0 SHL PUSH28 0xFFFFFFFFFFFFFFFFFFFFFFFFFFFFFFFFFFFFFFFFFFFFFFFFFFFFFFFF NOT AND DUP2 PUSH28 0xFFFFFFFFFFFFFFFFFFFFFFFFFFFFFFFFFFFFFFFFFFFFFFFFFFFFFFFF NOT AND EQ SWAP2 POP POP PUSH2 0x1DA5 JUMP JUMPDEST PUSH1 0x1 SWAP1 POP JUMPDEST SWAP5 SWAP4 POP POP POP POP JUMP JUMPDEST PUSH1 0x60 PUSH1 0x40 MLOAD DUP1 PUSH1 0x20 ADD PUSH1 0x40 MSTORE DUP1 PUSH1 0x0 DUP2 MSTORE POP SWAP1 POP SWAP1 JUMP JUMPDEST PUSH1 0x60 PUSH2 0x1DCF DUP3 PUSH2 0x102A JUMP JUMPDEST PUSH2 0x1E0E JUMPI PUSH1 0x40 MLOAD PUSH32 0x8C379A000000000000000000000000000000000000000000000000000000000 DUP2 MSTORE PUSH1 0x4 ADD PUSH2 0x1E05 SWAP1 PUSH2 0x345A JUMP JUMPDEST PUSH1 0x40 MLOAD DUP1 SWAP2 SUB SWAP1 REVERT JUMPDEST PUSH1 0x0 PUSH2 0x1E18 PUSH2 0x1DAD JUMP JUMPDEST SWAP1 POP PUSH1 0x0 DUP2 MLOAD GT PUSH2 0x1E38 JUMPI PUSH1 0x40 MLOAD DUP1 PUSH1 0x20 ADD PUSH1 0x40 MSTORE DUP1 PUSH1 0x0 DUP2 MSTORE POP PUSH2 0x1E63 JUMP JUMPDEST DUP1 PUSH2 0x1E42 DUP5 PUSH2 0x2184 JUMP JUMPDEST PUSH1 0x40 MLOAD PUSH1 0x20 ADD PUSH2 0x1E53 SWAP3 SWAP2 SWAP1 PUSH2 0x3132 JUMP JUMPDEST PUSH1 0x40 MLOAD PUSH1 0x20 DUP2 DUP4 SUB SUB DUP2 MSTORE SWAP1 PUSH1 0x40 MSTORE JUMPDEST SWAP2 POP POP SWAP2 SWAP1 POP JUMP JUMPDEST PUSH2 0x1E75 DUP4 DUP4 PUSH2 0x2331 JUMP JUMPDEST PUSH2 0x1E82 PUSH1 0x0 DUP5 DUP5 DUP5 PUSH2 0x1C16 JUMP JUMPDEST PUSH2 0x1EC1 JUMPI PUSH1 0x40 MLOAD PUSH32 0x8C379A000000000000000000000000000000000000000000000000000000000 DUP2 MSTORE PUSH1 0x4 ADD PUSH2 0x1EB8 SWAP1 PUSH2 0x323A JUMP JUMPDEST PUSH1 0x40 MLOAD DUP1 SWAP2 SUB SWAP1 REVERT JUMPDEST POP POP POP JUMP JUMPDEST PUSH1 0x0 PUSH32 0x1FFC9A700000000000000000000000000000000000000000000000000000000 PUSH28 0xFFFFFFFFFFFFFFFFFFFFFFFFFFFFFFFFFFFFFFFFFFFFFFFFFFFFFFFF NOT AND DUP3 PUSH28 0xFFFFFFFFFFFFFFFFFFFFFFFFFFFFFFFFFFFFFFFFFFFFFFFFFFFFFFFF NOT AND EQ SWAP1 POP SWAP2 SWAP1 POP JUMP JUMPDEST PUSH2 0x1F3B DUP4 DUP4 DUP4 PUSH2 0x250B JUMP JUMPDEST PUSH1 0x0 PUSH20 0xFFFFFFFFFFFFFFFFFFFFFFFFFFFFFFFFFFFFFFFF AND DUP4 PUSH20 0xFFFFFFFFFFFFFFFFFFFFFFFFFFFFFFFFFFFFFFFF AND EQ ISZERO PUSH2 0x1F7E JUMPI PUSH2 0x1F79 DUP2 PUSH2 0x2510 JUMP JUMPDEST PUSH2 0x1FBD JUMP JUMPDEST DUP2 PUSH20 0xFFFFFFFFFFFFFFFFFFFFFFFFFFFFFFFFFFFFFFFF AND DUP4 PUSH20 0xFFFFFFFFFFFFFFFFFFFFFFFFFFFFFFFFFFFFFFFF AND EQ PUSH2 0x1FBC JUMPI PUSH2 0x1FBB DUP4 DUP3 PUSH2 0x2559 JUMP JUMPDEST JUMPDEST JUMPDEST PUSH1 0x0 PUSH20 0xFFFFFFFFFFFFFFFFFFFFFFFFFFFFFFFFFFFFFFFF AND DUP3 PUSH20 0xFFFFFFFFFFFFFFFFFFFFFFFFFFFFFFFFFFFFFFFF AND EQ ISZERO PUSH2 0x2000 JUMPI PUSH2 0x1FFB DUP2 PUSH2 0x26C6 JUMP JUMPDEST PUSH2 0x203F JUMP JUMPDEST DUP3 PUSH20 0xFFFFFFFFFFFFFFFFFFFFFFFFFFFFFFFFFFFFFFFF AND DUP3 PUSH20 0xFFFFFFFFFFFFFFFFFFFFFFFFFFFFFFFFFFFFFFFF AND EQ PUSH2 0x203E JUMPI PUSH2 0x203D DUP3 DUP3 PUSH2 0x2809 JUMP JUMPDEST JUMPDEST JUMPDEST POP POP POP JUMP JUMPDEST PUSH1 0x0 PUSH2 0x204F DUP3 PUSH2 0x974 JUMP JUMPDEST SWAP1 POP PUSH2 0x205D DUP2 PUSH1 0x0 DUP5 PUSH2 0x1B66 JUMP JUMPDEST PUSH2 0x2068 PUSH1 0x0 DUP4 PUSH2 0x109E JUMP JUMPDEST PUSH1 0x1 PUSH1 0x3 PUSH1 0x0 DUP4 PUSH20 0xFFFFFFFFFFFFFFFFFFFFFFFFFFFFFFFFFFFFFFFF AND PUSH20 0xFFFFFFFFFFFFFFFFFFFFFFFFFFFFFFFFFFFFFFFF AND DUP2 MSTORE PUSH1 0x20 ADD SWAP1 DUP2 MSTORE PUSH1 0x20 ADD PUSH1 0x0 KECCAK256 PUSH1 0x0 DUP3 DUP3 SLOAD PUSH2 0x20B8 SWAP2 SWAP1 PUSH2 0x3666 JUMP JUMPDEST SWAP3 POP POP DUP2 SWAP1 SSTORE POP PUSH1 0x2 PUSH1 0x0 DUP4 DUP2 MSTORE PUSH1 0x20 ADD SWAP1 DUP2 MSTORE PUSH1 0x20 ADD PUSH1 0x0 KECCAK256 PUSH1 0x0 PUSH2 0x100 EXP DUP2 SLOAD SWAP1 PUSH20 0xFFFFFFFFFFFFFFFFFFFFFFFFFFFFFFFFFFFFFFFF MUL NOT AND SWAP1 SSTORE DUP2 PUSH1 0x0 PUSH20 0xFFFFFFFFFFFFFFFFFFFFFFFFFFFFFFFFFFFFFFFF AND DUP3 PUSH20 0xFFFFFFFFFFFFFFFFFFFFFFFFFFFFFFFFFFFFFFFF AND PUSH32 0xDDF252AD1BE2C89B69C2B068FC378DAA952BA7F163C4A11628F55A4DF523B3EF PUSH1 0x40 MLOAD PUSH1 0x40 MLOAD DUP1 SWAP2 SUB SWAP1 LOG4 PUSH2 0x215D DUP2 PUSH1 0x0 DUP5 PUSH2 0x1BBE JUMP JUMPDEST POP POP JUMP JUMPDEST PUSH1 0x0 DUP1 DUP3 PUSH20 0xFFFFFFFFFFFFFFFFFFFFFFFFFFFFFFFFFFFFFFFF AND EXTCODESIZE GT SWAP1 POP SWAP2 SWAP1 POP JUMP JUMPDEST PUSH1 0x60 PUSH1 0x0 DUP3 EQ ISZERO PUSH2 0x21CC JUMPI PUSH1 0x40 MLOAD DUP1 PUSH1 0x40 ADD PUSH1 0x40 MSTORE DUP1 PUSH1 0x1 DUP2 MSTORE PUSH1 0x20 ADD PUSH32 0x3000000000000000000000000000000000000000000000000000000000000000 DUP2 MSTORE POP SWAP1 POP PUSH2 0x232C JUMP JUMPDEST PUSH1 0x0 DUP3 SWAP1 POP PUSH1 0x0 JUMPDEST PUSH1 0x0 DUP3 EQ PUSH2 0x21FE JUMPI DUP1 DUP1 PUSH2 0x21E7 SWAP1 PUSH2 0x37B3 JUMP JUMPDEST SWAP2 POP POP PUSH1 0xA DUP3 PUSH2 0x21F7 SWAP2 SWAP1 PUSH2 0x3635 JUMP JUMPDEST SWAP2 POP PUSH2 0x21D4 JUMP JUMPDEST PUSH1 0x0 DUP2 PUSH8 0xFFFFFFFFFFFFFFFF DUP2 GT ISZERO PUSH2 0x2240 JUMPI PUSH32 0x4E487B7100000000000000000000000000000000000000000000000000000000 PUSH1 0x0 MSTORE PUSH1 0x41 PUSH1 0x4 MSTORE PUSH1 0x24 PUSH1 0x0 REVERT JUMPDEST PUSH1 0x40 MLOAD SWAP1 DUP1 DUP3 MSTORE DUP1 PUSH1 0x1F ADD PUSH1 0x1F NOT AND PUSH1 0x20 ADD DUP3 ADD PUSH1 0x40 MSTORE DUP1 ISZERO PUSH2 0x2272 JUMPI DUP2 PUSH1 0x20 ADD PUSH1 0x1 DUP3 MUL DUP1 CALLDATASIZE DUP4 CALLDATACOPY DUP1 DUP3 ADD SWAP2 POP POP SWAP1 POP JUMPDEST POP SWAP1 POP JUMPDEST PUSH1 0x0 DUP6 EQ PUSH2 0x2325 JUMPI PUSH1 0x1 DUP3 PUSH2 0x228B SWAP2 SWAP1 PUSH2 0x3666 JUMP JUMPDEST SWAP2 POP PUSH1 0xA DUP6 PUSH2 0x229A SWAP2 SWAP1 PUSH2 0x37FC JUMP JUMPDEST PUSH1 0x30 PUSH2 0x22A6 SWAP2 SWAP1 PUSH2 0x35DF JUMP JUMPDEST PUSH1 0xF8 SHL DUP2 DUP4 DUP2 MLOAD DUP2 LT PUSH2 0x22E2 JUMPI PUSH32 0x4E487B7100000000000000000000000000000000000000000000000000000000 PUSH1 0x0 MSTORE PUSH1 0x32 PUSH1 0x4 MSTORE PUSH1 0x24 PUSH1 0x0 REVERT JUMPDEST PUSH1 0x20 ADD ADD SWAP1 PUSH31 0xFFFFFFFFFFFFFFFFFFFFFFFFFFFFFFFFFFFFFFFFFFFFFFFFFFFFFFFFFFFFFF NOT AND SWAP1 DUP2 PUSH1 0x0 BYTE SWAP1 MSTORE8 POP PUSH1 0xA DUP6 PUSH2 0x231E SWAP2 SWAP1 PUSH2 0x3635 JUMP JUMPDEST SWAP5 POP PUSH2 0x2276 JUMP JUMPDEST DUP1 SWAP4 POP POP POP POP JUMPDEST SWAP2 SWAP1 POP JUMP JUMPDEST PUSH1 0x0 PUSH20 0xFFFFFFFFFFFFFFFFFFFFFFFFFFFFFFFFFFFFFFFF AND DUP3 PUSH20 0xFFFFFFFFFFFFFFFFFFFFFFFFFFFFFFFFFFFFFFFF AND EQ ISZERO PUSH2 0x23A1 JUMPI PUSH1 0x40 MLOAD PUSH32 0x8C379A000000000000000000000000000000000000000000000000000000000 DUP2 MSTORE PUSH1 0x4 ADD PUSH2 0x2398 SWAP1 PUSH2 0x33DA JUMP JUMPDEST PUSH1 0x40 MLOAD DUP1 SWAP2 SUB SWAP1 REVERT JUMPDEST PUSH2 0x23AA DUP2 PUSH2 0x102A JUMP JUMPDEST ISZERO PUSH2 0x23EA JUMPI PUSH1 0x40 MLOAD PUSH32 0x8C379A000000000000000000000000000000000000000000000000000000000 DUP2 MSTORE PUSH1 0x4 ADD PUSH2 0x23E1 SWAP1 PUSH2 0x329A JUMP JUMPDEST PUSH1 0x40 MLOAD DUP1 SWAP2 SUB SWAP1 REVERT JUMPDEST PUSH2 0x23F6 PUSH1 0x0 DUP4 DUP4 PUSH2 0x1B66 JUMP JUMPDEST PUSH1 0x1 PUSH1 0x3 PUSH1 0x0 DUP5 PUSH20 0xFFFFFFFFFFFFFFFFFFFFFFFFFFFFFFFFFFFFFFFF AND PUSH20 0xFFFFFFFFFFFFFFFFFFFFFFFFFFFFFFFFFFFFFFFF AND DUP2 MSTORE PUSH1 0x20 ADD SWAP1 DUP2 MSTORE PUSH1 0x20 ADD PUSH1 0x0 KECCAK256 PUSH1 0x0 DUP3 DUP3 SLOAD PUSH2 0x2446 SWAP2 SWAP1 PUSH2 0x35DF JUMP JUMPDEST SWAP3 POP POP DUP2 SWAP1 SSTORE POP DUP2 PUSH1 0x2 PUSH1 0x0 DUP4 DUP2 MSTORE PUSH1 0x20 ADD SWAP1 DUP2 MSTORE PUSH1 0x20 ADD PUSH1 0x0 KECCAK256 PUSH1 0x0 PUSH2 0x100 EXP DUP2 SLOAD DUP2 PUSH20 0xFFFFFFFFFFFFFFFFFFFFFFFFFFFFFFFFFFFFFFFF MUL NOT AND SWAP1 DUP4 PUSH20 0xFFFFFFFFFFFFFFFFFFFFFFFFFFFFFFFFFFFFFFFF AND MUL OR SWAP1 SSTORE POP DUP1 DUP3 PUSH20 0xFFFFFFFFFFFFFFFFFFFFFFFFFFFFFFFFFFFFFFFF AND PUSH1 0x0 PUSH20 0xFFFFFFFFFFFFFFFFFFFFFFFFFFFFFFFFFFFFFFFF AND PUSH32 0xDDF252AD1BE2C89B69C2B068FC378DAA952BA7F163C4A11628F55A4DF523B3EF PUSH1 0x40 MLOAD PUSH1 0x40 MLOAD DUP1 SWAP2 SUB SWAP1 LOG4 PUSH2 0x2507 PUSH1 0x0 DUP4 DUP4 PUSH2 0x1BBE JUMP JUMPDEST POP POP JUMP JUMPDEST POP POP POP JUMP JUMPDEST PUSH1 0x8 DUP1 SLOAD SWAP1 POP PUSH1 0x9 PUSH1 0x0 DUP4 DUP2 MSTORE PUSH1 0x20 ADD SWAP1 DUP2 MSTORE PUSH1 0x20 ADD PUSH1 0x0 KECCAK256 DUP2 SWAP1 SSTORE POP PUSH1 0x8 DUP2 SWAP1 DUP1 PUSH1 0x1 DUP2 SLOAD ADD DUP1 DUP3 SSTORE DUP1 SWAP2 POP POP PUSH1 0x1 SWAP1 SUB SWAP1 PUSH1 0x0 MSTORE PUSH1 0x20 PUSH1 0x0 KECCAK256 ADD PUSH1 0x0 SWAP1 SWAP2 SWAP1 SWAP2 SWAP1 SWAP2 POP SSTORE POP JUMP JUMPDEST PUSH1 0x0 PUSH1 0x1 PUSH2 0x2566 DUP5 PUSH2 0xA26 JUMP JUMPDEST PUSH2 0x2570 SWAP2 SWAP1 PUSH2 0x3666 JUMP JUMPDEST SWAP1 POP PUSH1 0x0 PUSH1 0x7 PUSH1 0x0 DUP5 DUP2 MSTORE PUSH1 0x20 ADD SWAP1 DUP2 MSTORE PUSH1 0x20 ADD PUSH1 0x0 KECCAK256 SLOAD SWAP1 POP DUP2 DUP2 EQ PUSH2 0x2655 JUMPI PUSH1 0x0 PUSH1 0x6 PUSH1 0x0 DUP7 PUSH20 0xFFFFFFFFFFFFFFFFFFFFFFFFFFFFFFFFFFFFFFFF AND PUSH20 0xFFFFFFFFFFFFFFFFFFFFFFFFFFFFFFFFFFFFFFFF AND DUP2 MSTORE PUSH1 0x20 ADD SWAP1 DUP2 MSTORE PUSH1 0x20 ADD PUSH1 0x0 KECCAK256 PUSH1 0x0 DUP5 DUP2 MSTORE PUSH1 0x20 ADD SWAP1 DUP2 MSTORE PUSH1 0x20 ADD PUSH1 0x0 KECCAK256 SLOAD SWAP1 POP DUP1 PUSH1 0x6 PUSH1 0x0 DUP8 PUSH20 0xFFFFFFFFFFFFFFFFFFFFFFFFFFFFFFFFFFFFFFFF AND PUSH20 0xFFFFFFFFFFFFFFFFFFFFFFFFFFFFFFFFFFFFFFFF AND DUP2 MSTORE PUSH1 0x20 ADD SWAP1 DUP2 MSTORE PUSH1 0x20 ADD PUSH1 0x0 KECCAK256 PUSH1 0x0 DUP5 DUP2 MSTORE PUSH1 0x20 ADD SWAP1 DUP2 MSTORE PUSH1 0x20 ADD PUSH1 0x0 KECCAK256 DUP2 SWAP1 SSTORE POP DUP2 PUSH1 0x7 PUSH1 0x0 DUP4 DUP2 MSTORE PUSH1 0x20 ADD SWAP1 DUP2 MSTORE PUSH1 0x20 ADD PUSH1 0x0 KECCAK256 DUP2 SWAP1 SSTORE POP POP JUMPDEST PUSH1 0x7 PUSH1 0x0 DUP5 DUP2 MSTORE PUSH1 0x20 ADD SWAP1 DUP2 MSTORE PUSH1 0x20 ADD PUSH1 0x0 KECCAK256 PUSH1 0x0 SWAP1 SSTORE PUSH1 0x6 PUSH1 0x0 DUP6 PUSH20 0xFFFFFFFFFFFFFFFFFFFFFFFFFFFFFFFFFFFFFFFF AND PUSH20 0xFFFFFFFFFFFFFFFFFFFFFFFFFFFFFFFFFFFFFFFF AND DUP2 MSTORE PUSH1 0x20 ADD SWAP1 DUP2 MSTORE PUSH1 0x20 ADD PUSH1 0x0 KECCAK256 PUSH1 0x0 DUP4 DUP2 MSTORE PUSH1 0x20 ADD SWAP1 DUP2 MSTORE PUSH1 0x20 ADD PUSH1 0x0 KECCAK256 PUSH1 0x0 SWAP1 SSTORE POP POP POP POP JUMP JUMPDEST PUSH1 0x0 PUSH1 0x1 PUSH1 0x8 DUP1 SLOAD SWAP1 POP PUSH2 0x26DA SWAP2 SWAP1 PUSH2 0x3666 JUMP JUMPDEST SWAP1 POP PUSH1 0x0 PUSH1 0x9 PUSH1 0x0 DUP5 DUP2 MSTORE PUSH1 0x20 ADD SWAP1 DUP2 MSTORE PUSH1 0x20 ADD PUSH1 0x0 KECCAK256 SLOAD SWAP1 POP PUSH1 0x0 PUSH1 0x8 DUP4 DUP2 SLOAD DUP2 LT PUSH2 0x2730 JUMPI PUSH32 0x4E487B7100000000000000000000000000000000000000000000000000000000 PUSH1 0x0 MSTORE PUSH1 0x32 PUSH1 0x4 MSTORE PUSH1 0x24 PUSH1 0x0 REVERT JUMPDEST SWAP1 PUSH1 0x0 MSTORE PUSH1 0x20 PUSH1 0x0 KECCAK256 ADD SLOAD SWAP1 POP DUP1 PUSH1 0x8 DUP4 DUP2 SLOAD DUP2 LT PUSH2 0x2778 JUMPI PUSH32 0x4E487B7100000000000000000000000000000000000000000000000000000000 PUSH1 0x0 MSTORE PUSH1 0x32 PUSH1 0x4 MSTORE PUSH1 0x24 PUSH1 0x0 REVERT JUMPDEST SWAP1 PUSH1 0x0 MSTORE PUSH1 0x20 PUSH1 0x0 KECCAK256 ADD DUP2 SWAP1 SSTORE POP DUP2 PUSH1 0x9 PUSH1 0x0 DUP4 DUP2 MSTORE PUSH1 0x20 ADD SWAP1 DUP2 MSTORE PUSH1 0x20 ADD PUSH1 0x0 KECCAK256 DUP2 SWAP1 SSTORE POP PUSH1 0x9 PUSH1 0x0 DUP6 DUP2 MSTORE PUSH1 0x20 ADD SWAP1 DUP2 MSTORE PUSH1 0x20 ADD PUSH1 0x0 KECCAK256 PUSH1 0x0 SWAP1 SSTORE PUSH1 0x8 DUP1 SLOAD DUP1 PUSH2 0x27ED JUMPI PUSH32 0x4E487B7100000000000000000000000000000000000000000000000000000000 PUSH1 0x0 MSTORE PUSH1 0x31 PUSH1 0x4 MSTORE PUSH1 0x24 PUSH1 0x0 REVERT JUMPDEST PUSH1 0x1 SWAP1 SUB DUP2 DUP2 SWAP1 PUSH1 0x0 MSTORE PUSH1 0x20 PUSH1 0x0 KECCAK256 ADD PUSH1 0x0 SWAP1 SSTORE SWAP1 SSTORE POP POP POP POP JUMP JUMPDEST PUSH1 0x0 PUSH2 0x2814 DUP4 PUSH2 0xA26 JUMP JUMPDEST SWAP1 POP DUP2 PUSH1 0x6 PUSH1 0x0 DUP6 PUSH20 0xFFFFFFFFFFFFFFFFFFFFFFFFFFFFFFFFFFFFFFFF AND PUSH20 0xFFFFFFFFFFFFFFFFFFFFFFFFFFFFFFFFFFFFFFFF AND DUP2 MSTORE PUSH1 0x20 ADD SWAP1 DUP2 MSTORE PUSH1 0x20 ADD PUSH1 0x0 KECCAK256 PUSH1 0x0 DUP4 DUP2 MSTORE PUSH1 0x20 ADD SWAP1 DUP2 MSTORE PUSH1 0x20 ADD PUSH1 0x0 KECCAK256 DUP2 SWAP1 SSTORE POP DUP1 PUSH1 0x7 PUSH1 0x0 DUP5 DUP2 MSTORE PUSH1 0x20 ADD SWAP1 DUP2 MSTORE PUSH1 0x20 ADD PUSH1 0x0 KECCAK256 DUP2 SWAP1 SSTORE POP POP POP POP JUMP JUMPDEST DUP3 DUP1 SLOAD PUSH2 0x2894 SWAP1 PUSH2 0x3750 JUMP JUMPDEST SWAP1 PUSH1 0x0 MSTORE PUSH1 0x20 PUSH1 0x0 KECCAK256 SWAP1 PUSH1 0x1F ADD PUSH1 0x20 SWAP1 DIV DUP2 ADD SWAP3 DUP3 PUSH2 0x28B6 JUMPI PUSH1 0x0 DUP6 SSTORE PUSH2 0x28FD JUMP JUMPDEST DUP3 PUSH1 0x1F LT PUSH2 0x28CF JUMPI DUP1 MLOAD PUSH1 0xFF NOT AND DUP4 DUP1 ADD OR DUP6 SSTORE PUSH2 0x28FD JUMP JUMPDEST DUP3 DUP1 ADD PUSH1 0x1 ADD DUP6 SSTORE DUP3 ISZERO PUSH2 0x28FD JUMPI SWAP2 DUP3 ADD JUMPDEST DUP3 DUP2 GT ISZERO PUSH2 0x28FC JUMPI DUP3 MLOAD DUP3 SSTORE SWAP2 PUSH1 0x20 ADD SWAP2 SWAP1 PUSH1 0x1 ADD SWAP1 PUSH2 0x28E1 JUMP JUMPDEST JUMPDEST POP SWAP1 POP PUSH2 0x290A SWAP2 SWAP1 PUSH2 0x294E JUMP JUMPDEST POP SWAP1 JUMP JUMPDEST POP DUP1 SLOAD PUSH2 0x291A SWAP1 PUSH2 0x3750 JUMP JUMPDEST PUSH1 0x0 DUP3 SSTORE DUP1 PUSH1 0x1F LT PUSH2 0x292C JUMPI POP PUSH2 0x294B JUMP JUMPDEST PUSH1 0x1F ADD PUSH1 0x20 SWAP1 DIV SWAP1 PUSH1 0x0 MSTORE PUSH1 0x20 PUSH1 0x0 KECCAK256 SWAP1 DUP2 ADD SWAP1 PUSH2 0x294A SWAP2 SWAP1 PUSH2 0x294E JUMP JUMPDEST JUMPDEST POP JUMP JUMPDEST JUMPDEST DUP1 DUP3 GT ISZERO PUSH2 0x2967 JUMPI PUSH1 0x0 DUP2 PUSH1 0x0 SWAP1 SSTORE POP PUSH1 0x1 ADD PUSH2 0x294F JUMP JUMPDEST POP SWAP1 JUMP JUMPDEST PUSH1 0x0 PUSH2 0x297E PUSH2 0x2979 DUP5 PUSH2 0x353A JUMP JUMPDEST PUSH2 0x3515 JUMP JUMPDEST SWAP1 POP DUP3 DUP2 MSTORE PUSH1 0x20 DUP2 ADD DUP5 DUP5 DUP5 ADD GT ISZERO PUSH2 0x2996 JUMPI PUSH1 0x0 DUP1 REVERT JUMPDEST PUSH2 0x29A1 DUP5 DUP3 DUP6 PUSH2 0x370E JUMP JUMPDEST POP SWAP4 SWAP3 POP POP POP JUMP JUMPDEST PUSH1 0x0 PUSH2 0x29BC PUSH2 0x29B7 DUP5 PUSH2 0x356B JUMP JUMPDEST PUSH2 0x3515 JUMP JUMPDEST SWAP1 POP DUP3 DUP2 MSTORE PUSH1 0x20 DUP2 ADD DUP5 DUP5 DUP5 ADD GT ISZERO PUSH2 0x29D4 JUMPI PUSH1 0x0 DUP1 REVERT JUMPDEST PUSH2 0x29DF DUP5 DUP3 DUP6 PUSH2 0x370E JUMP JUMPDEST POP SWAP4 SWAP3 POP POP POP JUMP JUMPDEST PUSH1 0x0 DUP2 CALLDATALOAD SWAP1 POP PUSH2 0x29F6 DUP2 PUSH2 0x3F7E JUMP JUMPDEST SWAP3 SWAP2 POP POP JUMP JUMPDEST PUSH1 0x0 DUP2 CALLDATALOAD SWAP1 POP PUSH2 0x2A0B DUP2 PUSH2 0x3F95 JUMP JUMPDEST SWAP3 SWAP2 POP POP JUMP JUMPDEST PUSH1 0x0 DUP2 CALLDATALOAD SWAP1 POP PUSH2 0x2A20 DUP2 PUSH2 0x3FAC JUMP JUMPDEST SWAP3 SWAP2 POP POP JUMP JUMPDEST PUSH1 0x0 DUP2 MLOAD SWAP1 POP PUSH2 0x2A35 DUP2 PUSH2 0x3FAC JUMP JUMPDEST SWAP3 SWAP2 POP POP JUMP JUMPDEST PUSH1 0x0 DUP3 PUSH1 0x1F DUP4 ADD SLT PUSH2 0x2A4C JUMPI PUSH1 0x0 DUP1 REVERT JUMPDEST DUP2 CALLDATALOAD PUSH2 0x2A5C DUP5 DUP3 PUSH1 0x20 DUP7 ADD PUSH2 0x296B JUMP JUMPDEST SWAP2 POP POP SWAP3 SWAP2 POP POP JUMP JUMPDEST PUSH1 0x0 DUP3 PUSH1 0x1F DUP4 ADD SLT PUSH2 0x2A76 JUMPI PUSH1 0x0 DUP1 REVERT JUMPDEST DUP2 CALLDATALOAD PUSH2 0x2A86 DUP5 DUP3 PUSH1 0x20 DUP7 ADD PUSH2 0x29A9 JUMP JUMPDEST SWAP2 POP POP SWAP3 SWAP2 POP POP JUMP JUMPDEST PUSH1 0x0 DUP2 CALLDATALOAD SWAP1 POP PUSH2 0x2A9E DUP2 PUSH2 0x3FC3 JUMP JUMPDEST SWAP3 SWAP2 POP POP JUMP JUMPDEST PUSH1 0x0 PUSH1 0x20 DUP3 DUP5 SUB SLT ISZERO PUSH2 0x2AB6 JUMPI PUSH1 0x0 DUP1 REVERT JUMPDEST PUSH1 0x0 PUSH2 0x2AC4 DUP5 DUP3 DUP6 ADD PUSH2 0x29E7 JUMP JUMPDEST SWAP2 POP POP SWAP3 SWAP2 POP POP JUMP JUMPDEST PUSH1 0x0 DUP1 PUSH1 0x40 DUP4 DUP6 SUB SLT ISZERO PUSH2 0x2AE0 JUMPI PUSH1 0x0 DUP1 REVERT JUMPDEST PUSH1 0x0 PUSH2 0x2AEE DUP6 DUP3 DUP7 ADD PUSH2 0x29E7 JUMP JUMPDEST SWAP3 POP POP PUSH1 0x20 PUSH2 0x2AFF DUP6 DUP3 DUP7 ADD PUSH2 0x29E7 JUMP JUMPDEST SWAP2 POP POP SWAP3 POP SWAP3 SWAP1 POP JUMP JUMPDEST PUSH1 0x0 DUP1 PUSH1 0x0 PUSH1 0x60 DUP5 DUP7 SUB SLT ISZERO PUSH2 0x2B1E JUMPI PUSH1 0x0 DUP1 REVERT JUMPDEST PUSH1 0x0 PUSH2 0x2B2C DUP7 DUP3 DUP8 ADD PUSH2 0x29E7 JUMP JUMPDEST SWAP4 POP POP PUSH1 0x20 PUSH2 0x2B3D DUP7 DUP3 DUP8 ADD PUSH2 0x29E7 JUMP JUMPDEST SWAP3 POP POP PUSH1 0x40 PUSH2 0x2B4E DUP7 DUP3 DUP8 ADD PUSH2 0x2A8F JUMP JUMPDEST SWAP2 POP POP SWAP3 POP SWAP3 POP SWAP3 JUMP JUMPDEST PUSH1 0x0 DUP1 PUSH1 0x0 DUP1 PUSH1 0x80 DUP6 DUP8 SUB SLT ISZERO PUSH2 0x2B6E JUMPI PUSH1 0x0 DUP1 REVERT JUMPDEST PUSH1 0x0 PUSH2 0x2B7C DUP8 DUP3 DUP9 ADD PUSH2 0x29E7 JUMP JUMPDEST SWAP5 POP POP PUSH1 0x20 PUSH2 0x2B8D DUP8 DUP3 DUP9 ADD PUSH2 0x29E7 JUMP JUMPDEST SWAP4 POP POP PUSH1 0x40 PUSH2 0x2B9E DUP8 DUP3 DUP9 ADD PUSH2 0x2A8F JUMP JUMPDEST SWAP3 POP POP PUSH1 0x60 DUP6 ADD CALLDATALOAD PUSH8 0xFFFFFFFFFFFFFFFF DUP2 GT ISZERO PUSH2 0x2BBB JUMPI PUSH1 0x0 DUP1 REVERT JUMPDEST PUSH2 0x2BC7 DUP8 DUP3 DUP9 ADD PUSH2 0x2A3B JUMP JUMPDEST SWAP2 POP POP SWAP3 SWAP6 SWAP2 SWAP5 POP SWAP3 POP JUMP JUMPDEST PUSH1 0x0 DUP1 PUSH1 0x40 DUP4 DUP6 SUB SLT ISZERO PUSH2 0x2BE6 JUMPI PUSH1 0x0 DUP1 REVERT JUMPDEST PUSH1 0x0 PUSH2 0x2BF4 DUP6 DUP3 DUP7 ADD PUSH2 0x29E7 JUMP JUMPDEST SWAP3 POP POP PUSH1 0x20 PUSH2 0x2C05 DUP6 DUP3 DUP7 ADD PUSH2 0x29FC JUMP JUMPDEST SWAP2 POP POP SWAP3 POP SWAP3 SWAP1 POP JUMP JUMPDEST PUSH1 0x0 DUP1 PUSH1 0x40 DUP4 DUP6 SUB SLT ISZERO PUSH2 0x2C22 JUMPI PUSH1 0x0 DUP1 REVERT JUMPDEST PUSH1 0x0 PUSH2 0x2C30 DUP6 DUP3 DUP7 ADD PUSH2 0x29E7 JUMP JUMPDEST SWAP3 POP POP PUSH1 0x20 DUP4 ADD CALLDATALOAD PUSH8 0xFFFFFFFFFFFFFFFF DUP2 GT ISZERO PUSH2 0x2C4D JUMPI PUSH1 0x0 DUP1 REVERT JUMPDEST PUSH2 0x2C59 DUP6 DUP3 DUP7 ADD PUSH2 0x2A65 JUMP JUMPDEST SWAP2 POP POP SWAP3 POP SWAP3 SWAP1 POP JUMP JUMPDEST PUSH1 0x0 DUP1 PUSH1 0x40 DUP4 DUP6 SUB SLT ISZERO PUSH2 0x2C76 JUMPI PUSH1 0x0 DUP1 REVERT JUMPDEST PUSH1 0x0 PUSH2 0x2C84 DUP6 DUP3 DUP7 ADD PUSH2 0x29E7 JUMP JUMPDEST SWAP3 POP POP PUSH1 0x20 PUSH2 0x2C95 DUP6 DUP3 DUP7 ADD PUSH2 0x2A8F JUMP JUMPDEST SWAP2 POP POP SWAP3 POP SWAP3 SWAP1 POP JUMP JUMPDEST PUSH1 0x0 PUSH1 0x20 DUP3 DUP5 SUB SLT ISZERO PUSH2 0x2CB1 JUMPI PUSH1 0x0 DUP1 REVERT JUMPDEST PUSH1 0x0 PUSH2 0x2CBF DUP5 DUP3 DUP6 ADD PUSH2 0x2A11 JUMP JUMPDEST SWAP2 POP POP SWAP3 SWAP2 POP POP JUMP JUMPDEST PUSH1 0x0 PUSH1 0x20 DUP3 DUP5 SUB SLT ISZERO PUSH2 0x2CDA JUMPI PUSH1 0x0 DUP1 REVERT JUMPDEST PUSH1 0x0 PUSH2 0x2CE8 DUP5 DUP3 DUP6 ADD PUSH2 0x2A26 JUMP JUMPDEST SWAP2 POP POP SWAP3 SWAP2 POP POP JUMP JUMPDEST PUSH1 0x0 PUSH1 0x20 DUP3 DUP5 SUB SLT ISZERO PUSH2 0x2D03 JUMPI PUSH1 0x0 DUP1 REVERT JUMPDEST PUSH1 0x0 PUSH2 0x2D11 DUP5 DUP3 DUP6 ADD PUSH2 0x2A8F JUMP JUMPDEST SWAP2 POP POP SWAP3 SWAP2 POP POP JUMP JUMPDEST PUSH2 0x2D23 DUP2 PUSH2 0x369A JUMP JUMPDEST DUP3 MSTORE POP POP JUMP JUMPDEST PUSH2 0x2D32 DUP2 PUSH2 0x36AC JUMP JUMPDEST DUP3 MSTORE POP POP JUMP JUMPDEST PUSH1 0x0 PUSH2 0x2D43 DUP3 PUSH2 0x359C JUMP JUMPDEST PUSH2 0x2D4D DUP2 DUP6 PUSH2 0x35B2 JUMP JUMPDEST SWAP4 POP PUSH2 0x2D5D DUP2 DUP6 PUSH1 0x20 DUP7 ADD PUSH2 0x371D JUMP JUMPDEST PUSH2 0x2D66 DUP2 PUSH2 0x38E9 JUMP JUMPDEST DUP5 ADD SWAP2 POP POP SWAP3 SWAP2 POP POP JUMP JUMPDEST PUSH1 0x0 PUSH2 0x2D7C DUP3 PUSH2 0x35A7 JUMP JUMPDEST PUSH2 0x2D86 DUP2 DUP6 PUSH2 0x35C3 JUMP JUMPDEST SWAP4 POP PUSH2 0x2D96 DUP2 DUP6 PUSH1 0x20 DUP7 ADD PUSH2 0x371D JUMP JUMPDEST PUSH2 0x2D9F DUP2 PUSH2 0x38E9 JUMP JUMPDEST DUP5 ADD SWAP2 POP POP SWAP3 SWAP2 POP POP JUMP JUMPDEST PUSH1 0x0 PUSH2 0x2DB5 DUP3 PUSH2 0x35A7 JUMP JUMPDEST PUSH2 0x2DBF DUP2 DUP6 PUSH2 0x35D4 JUMP JUMPDEST SWAP4 POP PUSH2 0x2DCF DUP2 DUP6 PUSH1 0x20 DUP7 ADD PUSH2 0x371D JUMP JUMPDEST DUP1 DUP5 ADD SWAP2 POP POP SWAP3 SWAP2 POP POP JUMP JUMPDEST PUSH1 0x0 PUSH2 0x2DE8 PUSH1 0x14 DUP4 PUSH2 0x35C3 JUMP JUMPDEST SWAP2 POP PUSH2 0x2DF3 DUP3 PUSH2 0x38FA JUMP JUMPDEST PUSH1 0x20 DUP3 ADD SWAP1 POP SWAP2 SWAP1 POP JUMP JUMPDEST PUSH1 0x0 PUSH2 0x2E0B PUSH1 0x2B DUP4 PUSH2 0x35C3 JUMP JUMPDEST SWAP2 POP PUSH2 0x2E16 DUP3 PUSH2 0x3923 JUMP JUMPDEST PUSH1 0x40 DUP3 ADD SWAP1 POP SWAP2 SWAP1 POP JUMP JUMPDEST PUSH1 0x0 PUSH2 0x2E2E PUSH1 0x32 DUP4 PUSH2 0x35C3 JUMP JUMPDEST SWAP2 POP PUSH2 0x2E39 DUP3 PUSH2 0x3972 JUMP JUMPDEST PUSH1 0x40 DUP3 ADD SWAP1 POP SWAP2 SWAP1 POP JUMP JUMPDEST PUSH1 0x0 PUSH2 0x2E51 PUSH1 0x26 DUP4 PUSH2 0x35C3 JUMP JUMPDEST SWAP2 POP PUSH2 0x2E5C DUP3 PUSH2 0x39C1 JUMP JUMPDEST PUSH1 0x40 DUP3 ADD SWAP1 POP SWAP2 SWAP1 POP JUMP JUMPDEST PUSH1 0x0 PUSH2 0x2E74 PUSH1 0x25 DUP4 PUSH2 0x35C3 JUMP JUMPDEST SWAP2 POP PUSH2 0x2E7F DUP3 PUSH2 0x3A10 JUMP JUMPDEST PUSH1 0x40 DUP3 ADD SWAP1 POP SWAP2 SWAP1 POP JUMP JUMPDEST PUSH1 0x0 PUSH2 0x2E97 PUSH1 0x1C DUP4 PUSH2 0x35C3 JUMP JUMPDEST SWAP2 POP PUSH2 0x2EA2 DUP3 PUSH2 0x3A5F JUMP JUMPDEST PUSH1 0x20 DUP3 ADD SWAP1 POP SWAP2 SWAP1 POP JUMP JUMPDEST PUSH1 0x0 PUSH2 0x2EBA PUSH1 0x24 DUP4 PUSH2 0x35C3 JUMP JUMPDEST SWAP2 POP PUSH2 0x2EC5 DUP3 PUSH2 0x3A88 JUMP JUMPDEST PUSH1 0x40 DUP3 ADD SWAP1 POP SWAP2 SWAP1 POP JUMP JUMPDEST PUSH1 0x0 PUSH2 0x2EDD PUSH1 0x19 DUP4 PUSH2 0x35C3 JUMP JUMPDEST SWAP2 POP PUSH2 0x2EE8 DUP3 PUSH2 0x3AD7 JUMP JUMPDEST PUSH1 0x20 DUP3 ADD SWAP1 POP SWAP2 SWAP1 POP JUMP JUMPDEST PUSH1 0x0 PUSH2 0x2F00 PUSH1 0x21 DUP4 PUSH2 0x35C3 JUMP JUMPDEST SWAP2 POP PUSH2 0x2F0B DUP3 PUSH2 0x3B00 JUMP JUMPDEST PUSH1 0x40 DUP3 ADD SWAP1 POP SWAP2 SWAP1 POP JUMP JUMPDEST PUSH1 0x0 PUSH2 0x2F23 PUSH1 0x2C DUP4 PUSH2 0x35C3 JUMP JUMPDEST SWAP2 POP PUSH2 0x2F2E DUP3 PUSH2 0x3B4F JUMP JUMPDEST PUSH1 0x40 DUP3 ADD SWAP1 POP SWAP2 SWAP1 POP JUMP JUMPDEST PUSH1 0x0 PUSH2 0x2F46 PUSH1 0x10 DUP4 PUSH2 0x35C3 JUMP JUMPDEST SWAP2 POP PUSH2 0x2F51 DUP3 PUSH2 0x3B9E JUMP JUMPDEST PUSH1 0x20 DUP3 ADD SWAP1 POP SWAP2 SWAP1 POP JUMP JUMPDEST PUSH1 0x0 PUSH2 0x2F69 PUSH1 0x38 DUP4 PUSH2 0x35C3 JUMP JUMPDEST SWAP2 POP PUSH2 0x2F74 DUP3 PUSH2 0x3BC7 JUMP JUMPDEST PUSH1 0x40 DUP3 ADD SWAP1 POP SWAP2 SWAP1 POP JUMP JUMPDEST PUSH1 0x0 PUSH2 0x2F8C PUSH1 0x2A DUP4 PUSH2 0x35C3 JUMP JUMPDEST SWAP2 POP PUSH2 0x2F97 DUP3 PUSH2 0x3C16 JUMP JUMPDEST PUSH1 0x40 DUP3 ADD SWAP1 POP SWAP2 SWAP1 POP JUMP JUMPDEST PUSH1 0x0 PUSH2 0x2FAF PUSH1 0x29 DUP4 PUSH2 0x35C3 JUMP JUMPDEST SWAP2 POP PUSH2 0x2FBA DUP3 PUSH2 0x3C65 JUMP JUMPDEST PUSH1 0x40 DUP3 ADD SWAP1 POP SWAP2 SWAP1 POP JUMP JUMPDEST PUSH1 0x0 PUSH2 0x2FD2 PUSH1 0x2E DUP4 PUSH2 0x35C3 JUMP JUMPDEST SWAP2 POP PUSH2 0x2FDD DUP3 PUSH2 0x3CB4 JUMP JUMPDEST PUSH1 0x40 DUP3 ADD SWAP1 POP SWAP2 SWAP1 POP JUMP JUMPDEST PUSH1 0x0 PUSH2 0x2FF5 PUSH1 0x20 DUP4 PUSH2 0x35C3 JUMP JUMPDEST SWAP2 POP PUSH2 0x3000 DUP3 PUSH2 0x3D03 JUMP JUMPDEST PUSH1 0x20 DUP3 ADD SWAP1 POP SWAP2 SWAP1 POP JUMP JUMPDEST PUSH1 0x0 PUSH2 0x3018 PUSH1 0x31 DUP4 PUSH2 0x35C3 JUMP JUMPDEST SWAP2 POP PUSH2 0x3023 DUP3 PUSH2 0x3D2C JUMP JUMPDEST PUSH1 0x40 DUP3 ADD SWAP1 POP SWAP2 SWAP1 POP JUMP JUMPDEST PUSH1 0x0 PUSH2 0x303B PUSH1 0x2C DUP4 PUSH2 0x35C3 JUMP JUMPDEST SWAP2 POP PUSH2 0x3046 DUP3 PUSH2 0x3D7B JUMP JUMPDEST PUSH1 0x40 DUP3 ADD SWAP1 POP SWAP2 SWAP1 POP JUMP JUMPDEST PUSH1 0x0 PUSH2 0x305E PUSH1 0x20 DUP4 PUSH2 0x35C3 JUMP JUMPDEST SWAP2 POP PUSH2 0x3069 DUP3 PUSH2 0x3DCA JUMP JUMPDEST PUSH1 0x20 DUP3 ADD SWAP1 POP SWAP2 SWAP1 POP JUMP JUMPDEST PUSH1 0x0 PUSH2 0x3081 PUSH1 0x2F DUP4 PUSH2 0x35C3 JUMP JUMPDEST SWAP2 POP PUSH2 0x308C DUP3 PUSH2 0x3DF3 JUMP JUMPDEST PUSH1 0x40 DUP3 ADD SWAP1 POP SWAP2 SWAP1 POP JUMP JUMPDEST PUSH1 0x0 PUSH2 0x30A4 PUSH1 0x21 DUP4 PUSH2 0x35C3 JUMP JUMPDEST SWAP2 POP PUSH2 0x30AF DUP3 PUSH2 0x3E42 JUMP JUMPDEST PUSH1 0x40 DUP3 ADD SWAP1 POP SWAP2 SWAP1 POP JUMP JUMPDEST PUSH1 0x0 PUSH2 0x30C7 PUSH1 0x31 DUP4 PUSH2 0x35C3 JUMP JUMPDEST SWAP2 POP PUSH2 0x30D2 DUP3 PUSH2 0x3E91 JUMP JUMPDEST PUSH1 0x40 DUP3 ADD SWAP1 POP SWAP2 SWAP1 POP JUMP JUMPDEST PUSH1 0x0 PUSH2 0x30EA PUSH1 0x2C DUP4 PUSH2 0x35C3 JUMP JUMPDEST SWAP2 POP PUSH2 0x30F5 DUP3 PUSH2 0x3EE0 JUMP JUMPDEST PUSH1 0x40 DUP3 ADD SWAP1 POP SWAP2 SWAP1 POP JUMP JUMPDEST PUSH1 0x0 PUSH2 0x310D PUSH1 0x30 DUP4 PUSH2 0x35C3 JUMP JUMPDEST SWAP2 POP PUSH2 0x3118 DUP3 PUSH2 0x3F2F JUMP JUMPDEST PUSH1 0x40 DUP3 ADD SWAP1 POP SWAP2 SWAP1 POP JUMP JUMPDEST PUSH2 0x312C DUP2 PUSH2 0x3704 JUMP JUMPDEST DUP3 MSTORE POP POP JUMP JUMPDEST PUSH1 0x0 PUSH2 0x313E DUP3 DUP6 PUSH2 0x2DAA JUMP JUMPDEST SWAP2 POP PUSH2 0x314A DUP3 DUP5 PUSH2 0x2DAA JUMP JUMPDEST SWAP2 POP DUP2 SWAP1 POP SWAP4 SWAP3 POP POP POP JUMP JUMPDEST PUSH1 0x0 PUSH1 0x20 DUP3 ADD SWAP1 POP PUSH2 0x316B PUSH1 0x0 DUP4 ADD DUP5 PUSH2 0x2D1A JUMP JUMPDEST SWAP3 SWAP2 POP POP JUMP JUMPDEST PUSH1 0x0 PUSH1 0x80 DUP3 ADD SWAP1 POP PUSH2 0x3186 PUSH1 0x0 DUP4 ADD DUP8 PUSH2 0x2D1A JUMP JUMPDEST PUSH2 0x3193 PUSH1 0x20 DUP4 ADD DUP7 PUSH2 0x2D1A JUMP JUMPDEST PUSH2 0x31A0 PUSH1 0x40 DUP4 ADD DUP6 PUSH2 0x3123 JUMP JUMPDEST DUP2 DUP2 SUB PUSH1 0x60 DUP4 ADD MSTORE PUSH2 0x31B2 DUP2 DUP5 PUSH2 0x2D38 JUMP JUMPDEST SWAP1 POP SWAP6 SWAP5 POP POP POP POP POP JUMP JUMPDEST PUSH1 0x0 PUSH1 0x20 DUP3 ADD SWAP1 POP PUSH2 0x31D2 PUSH1 0x0 DUP4 ADD DUP5 PUSH2 0x2D29 JUMP JUMPDEST SWAP3 SWAP2 POP POP JUMP JUMPDEST PUSH1 0x0 PUSH1 0x20 DUP3 ADD SWAP1 POP DUP2 DUP2 SUB PUSH1 0x0 DUP4 ADD MSTORE PUSH2 0x31F2 DUP2 DUP5 PUSH2 0x2D71 JUMP JUMPDEST SWAP1 POP SWAP3 SWAP2 POP POP JUMP JUMPDEST PUSH1 0x0 PUSH1 0x20 DUP3 ADD SWAP1 POP DUP2 DUP2 SUB PUSH1 0x0 DUP4 ADD MSTORE PUSH2 0x3213 DUP2 PUSH2 0x2DDB JUMP JUMPDEST SWAP1 POP SWAP2 SWAP1 POP JUMP JUMPDEST PUSH1 0x0 PUSH1 0x20 DUP3 ADD SWAP1 POP DUP2 DUP2 SUB PUSH1 0x0 DUP4 ADD MSTORE PUSH2 0x3233 DUP2 PUSH2 0x2DFE JUMP JUMPDEST SWAP1 POP SWAP2 SWAP1 POP JUMP JUMPDEST PUSH1 0x0 PUSH1 0x20 DUP3 ADD SWAP1 POP DUP2 DUP2 SUB PUSH1 0x0 DUP4 ADD MSTORE PUSH2 0x3253 DUP2 PUSH2 0x2E21 JUMP JUMPDEST SWAP1 POP SWAP2 SWAP1 POP JUMP JUMPDEST PUSH1 0x0 PUSH1 0x20 DUP3 ADD SWAP1 POP DUP2 DUP2 SUB PUSH1 0x0 DUP4 ADD MSTORE PUSH2 0x3273 DUP2 PUSH2 0x2E44 JUMP JUMPDEST SWAP1 POP SWAP2 SWAP1 POP JUMP JUMPDEST PUSH1 0x0 PUSH1 0x20 DUP3 ADD SWAP1 POP DUP2 DUP2 SUB PUSH1 0x0 DUP4 ADD MSTORE PUSH2 0x3293 DUP2 PUSH2 0x2E67 JUMP JUMPDEST SWAP1 POP SWAP2 SWAP1 POP JUMP JUMPDEST PUSH1 0x0 PUSH1 0x20 DUP3 ADD SWAP1 POP DUP2 DUP2 SUB PUSH1 0x0 DUP4 ADD MSTORE PUSH2 0x32B3 DUP2 PUSH2 0x2E8A JUMP JUMPDEST SWAP1 POP SWAP2 SWAP1 POP JUMP JUMPDEST PUSH1 0x0 PUSH1 0x20 DUP3 ADD SWAP1 POP DUP2 DUP2 SUB PUSH1 0x0 DUP4 ADD MSTORE PUSH2 0x32D3 DUP2 PUSH2 0x2EAD JUMP JUMPDEST SWAP1 POP SWAP2 SWAP1 POP JUMP JUMPDEST PUSH1 0x0 PUSH1 0x20 DUP3 ADD SWAP1 POP DUP2 DUP2 SUB PUSH1 0x0 DUP4 ADD MSTORE PUSH2 0x32F3 DUP2 PUSH2 0x2ED0 JUMP JUMPDEST SWAP1 POP SWAP2 SWAP1 POP JUMP JUMPDEST PUSH1 0x0 PUSH1 0x20 DUP3 ADD SWAP1 POP DUP2 DUP2 SUB PUSH1 0x0 DUP4 ADD MSTORE PUSH2 0x3313 DUP2 PUSH2 0x2EF3 JUMP JUMPDEST SWAP1 POP SWAP2 SWAP1 POP JUMP JUMPDEST PUSH1 0x0 PUSH1 0x20 DUP3 ADD SWAP1 POP DUP2 DUP2 SUB PUSH1 0x0 DUP4 ADD MSTORE PUSH2 0x3333 DUP2 PUSH2 0x2F16 JUMP JUMPDEST SWAP1 POP SWAP2 SWAP1 POP JUMP JUMPDEST PUSH1 0x0 PUSH1 0x20 DUP3 ADD SWAP1 POP DUP2 DUP2 SUB PUSH1 0x0 DUP4 ADD MSTORE PUSH2 0x3353 DUP2 PUSH2 0x2F39 JUMP JUMPDEST SWAP1 POP SWAP2 SWAP1 POP JUMP JUMPDEST PUSH1 0x0 PUSH1 0x20 DUP3 ADD SWAP1 POP DUP2 DUP2 SUB PUSH1 0x0 DUP4 ADD MSTORE PUSH2 0x3373 DUP2 PUSH2 0x2F5C JUMP JUMPDEST SWAP1 POP SWAP2 SWAP1 POP JUMP JUMPDEST PUSH1 0x0 PUSH1 0x20 DUP3 ADD SWAP1 POP DUP2 DUP2 SUB PUSH1 0x0 DUP4 ADD MSTORE PUSH2 0x3393 DUP2 PUSH2 0x2F7F JUMP JUMPDEST SWAP1 POP SWAP2 SWAP1 POP JUMP JUMPDEST PUSH1 0x0 PUSH1 0x20 DUP3 ADD SWAP1 POP DUP2 DUP2 SUB PUSH1 0x0 DUP4 ADD MSTORE PUSH2 0x33B3 DUP2 PUSH2 0x2FA2 JUMP JUMPDEST SWAP1 POP SWAP2 SWAP1 POP JUMP JUMPDEST PUSH1 0x0 PUSH1 0x20 DUP3 ADD SWAP1 POP DUP2 DUP2 SUB PUSH1 0x0 DUP4 ADD MSTORE PUSH2 0x33D3 DUP2 PUSH2 0x2FC5 JUMP JUMPDEST SWAP1 POP SWAP2 SWAP1 POP JUMP JUMPDEST PUSH1 0x0 PUSH1 0x20 DUP3 ADD SWAP1 POP DUP2 DUP2 SUB PUSH1 0x0 DUP4 ADD MSTORE PUSH2 0x33F3 DUP2 PUSH2 0x2FE8 JUMP JUMPDEST SWAP1 POP SWAP2 SWAP1 POP JUMP JUMPDEST PUSH1 0x0 PUSH1 0x20 DUP3 ADD SWAP1 POP DUP2 DUP2 SUB PUSH1 0x0 DUP4 ADD MSTORE PUSH2 0x3413 DUP2 PUSH2 0x300B JUMP JUMPDEST SWAP1 POP SWAP2 SWAP1 POP JUMP JUMPDEST PUSH1 0x0 PUSH1 0x20 DUP3 ADD SWAP1 POP DUP2 DUP2 SUB PUSH1 0x0 DUP4 ADD MSTORE PUSH2 0x3433 DUP2 PUSH2 0x302E JUMP JUMPDEST SWAP1 POP SWAP2 SWAP1 POP JUMP JUMPDEST PUSH1 0x0 PUSH1 0x20 DUP3 ADD SWAP1 POP DUP2 DUP2 SUB PUSH1 0x0 DUP4 ADD MSTORE PUSH2 0x3453 DUP2 PUSH2 0x3051 JUMP JUMPDEST SWAP1 POP SWAP2 SWAP1 POP JUMP JUMPDEST PUSH1 0x0 PUSH1 0x20 DUP3 ADD SWAP1 POP DUP2 DUP2 SUB PUSH1 0x0 DUP4 ADD MSTORE PUSH2 0x3473 DUP2 PUSH2 0x3074 JUMP JUMPDEST SWAP1 POP SWAP2 SWAP1 POP JUMP JUMPDEST PUSH1 0x0 PUSH1 0x20 DUP3 ADD SWAP1 POP DUP2 DUP2 SUB PUSH1 0x0 DUP4 ADD MSTORE PUSH2 0x3493 DUP2 PUSH2 0x3097 JUMP JUMPDEST SWAP1 POP SWAP2 SWAP1 POP JUMP JUMPDEST PUSH1 0x0 PUSH1 0x20 DUP3 ADD SWAP1 POP DUP2 DUP2 SUB PUSH1 0x0 DUP4 ADD MSTORE PUSH2 0x34B3 DUP2 PUSH2 0x30BA JUMP JUMPDEST SWAP1 POP SWAP2 SWAP1 POP JUMP JUMPDEST PUSH1 0x0 PUSH1 0x20 DUP3 ADD SWAP1 POP DUP2 DUP2 SUB PUSH1 0x0 DUP4 ADD MSTORE PUSH2 0x34D3 DUP2 PUSH2 0x30DD JUMP JUMPDEST SWAP1 POP SWAP2 SWAP1 POP JUMP JUMPDEST PUSH1 0x0 PUSH1 0x20 DUP3 ADD SWAP1 POP DUP2 DUP2 SUB PUSH1 0x0 DUP4 ADD MSTORE PUSH2 0x34F3 DUP2 PUSH2 0x3100 JUMP JUMPDEST SWAP1 POP SWAP2 SWAP1 POP JUMP JUMPDEST PUSH1 0x0 PUSH1 0x20 DUP3 ADD SWAP1 POP PUSH2 0x350F PUSH1 0x0 DUP4 ADD DUP5 PUSH2 0x3123 JUMP JUMPDEST SWAP3 SWAP2 POP POP JUMP JUMPDEST PUSH1 0x0 PUSH2 0x351F PUSH2 0x3530 JUMP JUMPDEST SWAP1 POP PUSH2 0x352B DUP3 DUP3 PUSH2 0x3782 JUMP JUMPDEST SWAP2 SWAP1 POP JUMP JUMPDEST PUSH1 0x0 PUSH1 0x40 MLOAD SWAP1 POP SWAP1 JUMP JUMPDEST PUSH1 0x0 PUSH8 0xFFFFFFFFFFFFFFFF DUP3 GT ISZERO PUSH2 0x3555 JUMPI PUSH2 0x3554 PUSH2 0x38BA JUMP JUMPDEST JUMPDEST PUSH2 0x355E DUP3 PUSH2 0x38E9 JUMP JUMPDEST SWAP1 POP PUSH1 0x20 DUP2 ADD SWAP1 POP SWAP2 SWAP1 POP JUMP JUMPDEST PUSH1 0x0 PUSH8 0xFFFFFFFFFFFFFFFF DUP3 GT ISZERO PUSH2 0x3586 JUMPI PUSH2 0x3585 PUSH2 0x38BA JUMP JUMPDEST JUMPDEST PUSH2 0x358F DUP3 PUSH2 0x38E9 JUMP JUMPDEST SWAP1 POP PUSH1 0x20 DUP2 ADD SWAP1 POP SWAP2 SWAP1 POP JUMP JUMPDEST PUSH1 0x0 DUP2 MLOAD SWAP1 POP SWAP2 SWAP1 POP JUMP JUMPDEST PUSH1 0x0 DUP2 MLOAD SWAP1 POP SWAP2 SWAP1 POP JUMP JUMPDEST PUSH1 0x0 DUP3 DUP3 MSTORE PUSH1 0x20 DUP3 ADD SWAP1 POP SWAP3 SWAP2 POP POP JUMP JUMPDEST PUSH1 0x0 DUP3 DUP3 MSTORE PUSH1 0x20 DUP3 ADD SWAP1 POP SWAP3 SWAP2 POP POP JUMP JUMPDEST PUSH1 0x0 DUP2 SWAP1 POP SWAP3 SWAP2 POP POP JUMP JUMPDEST PUSH1 0x0 PUSH2 0x35EA DUP3 PUSH2 0x3704 JUMP JUMPDEST SWAP2 POP PUSH2 0x35F5 DUP4 PUSH2 0x3704 JUMP JUMPDEST SWAP3 POP DUP3 PUSH32 0xFFFFFFFFFFFFFFFFFFFFFFFFFFFFFFFFFFFFFFFFFFFFFFFFFFFFFFFFFFFFFFFF SUB DUP3 GT ISZERO PUSH2 0x362A JUMPI PUSH2 0x3629 PUSH2 0x382D JUMP JUMPDEST JUMPDEST DUP3 DUP3 ADD SWAP1 POP SWAP3 SWAP2 POP POP JUMP JUMPDEST PUSH1 0x0 PUSH2 0x3640 DUP3 PUSH2 0x3704 JUMP JUMPDEST SWAP2 POP PUSH2 0x364B DUP4 PUSH2 0x3704 JUMP JUMPDEST SWAP3 POP DUP3 PUSH2 0x365B JUMPI PUSH2 0x365A PUSH2 0x385C JUMP JUMPDEST JUMPDEST DUP3 DUP3 DIV SWAP1 POP SWAP3 SWAP2 POP POP JUMP JUMPDEST PUSH1 0x0 PUSH2 0x3671 DUP3 PUSH2 0x3704 JUMP JUMPDEST SWAP2 POP PUSH2 0x367C DUP4 PUSH2 0x3704 JUMP JUMPDEST SWAP3 POP DUP3 DUP3 LT ISZERO PUSH2 0x368F JUMPI PUSH2 0x368E PUSH2 0x382D JUMP JUMPDEST JUMPDEST DUP3 DUP3 SUB SWAP1 POP SWAP3 SWAP2 POP POP JUMP JUMPDEST PUSH1 0x0 PUSH2 0x36A5 DUP3 PUSH2 0x36E4 JUMP JUMPDEST SWAP1 POP SWAP2 SWAP1 POP JUMP JUMPDEST PUSH1 0x0 DUP2 ISZERO ISZERO SWAP1 POP SWAP2 SWAP1 POP JUMP JUMPDEST PUSH1 0x0 PUSH32 0xFFFFFFFF00000000000000000000000000000000000000000000000000000000 DUP3 AND SWAP1 POP SWAP2 SWAP1 POP JUMP JUMPDEST PUSH1 0x0 PUSH20 0xFFFFFFFFFFFFFFFFFFFFFFFFFFFFFFFFFFFFFFFF DUP3 AND SWAP1 POP SWAP2 SWAP1 POP JUMP JUMPDEST PUSH1 0x0 DUP2 SWAP1 POP SWAP2 SWAP1 POP JUMP JUMPDEST DUP3 DUP2 DUP4 CALLDATACOPY PUSH1 0x0 DUP4 DUP4 ADD MSTORE POP POP POP JUMP JUMPDEST PUSH1 0x0 JUMPDEST DUP4 DUP2 LT ISZERO PUSH2 0x373B JUMPI DUP1 DUP3 ADD MLOAD DUP2 DUP5 ADD MSTORE PUSH1 0x20 DUP2 ADD SWAP1 POP PUSH2 0x3720 JUMP JUMPDEST DUP4 DUP2 GT ISZERO PUSH2 0x374A JUMPI PUSH1 0x0 DUP5 DUP5 ADD MSTORE JUMPDEST POP POP POP POP JUMP JUMPDEST PUSH1 0x0 PUSH1 0x2 DUP3 DIV SWAP1 POP PUSH1 0x1 DUP3 AND DUP1 PUSH2 0x3768 JUMPI PUSH1 0x7F DUP3 AND SWAP2 POP JUMPDEST PUSH1 0x20 DUP3 LT DUP2 EQ ISZERO PUSH2 0x377C JUMPI PUSH2 0x377B PUSH2 0x388B JUMP JUMPDEST JUMPDEST POP SWAP2 SWAP1 POP JUMP JUMPDEST PUSH2 0x378B DUP3 PUSH2 0x38E9 JUMP JUMPDEST DUP2 ADD DUP2 DUP2 LT PUSH8 0xFFFFFFFFFFFFFFFF DUP3 GT OR ISZERO PUSH2 0x37AA JUMPI PUSH2 0x37A9 PUSH2 0x38BA JUMP JUMPDEST JUMPDEST DUP1 PUSH1 0x40 MSTORE POP POP POP JUMP JUMPDEST PUSH1 0x0 PUSH2 0x37BE DUP3 PUSH2 0x3704 JUMP JUMPDEST SWAP2 POP PUSH32 0xFFFFFFFFFFFFFFFFFFFFFFFFFFFFFFFFFFFFFFFFFFFFFFFFFFFFFFFFFFFFFFFF DUP3 EQ ISZERO PUSH2 0x37F1 JUMPI PUSH2 0x37F0 PUSH2 0x382D JUMP JUMPDEST JUMPDEST PUSH1 0x1 DUP3 ADD SWAP1 POP SWAP2 SWAP1 POP JUMP JUMPDEST PUSH1 0x0 PUSH2 0x3807 DUP3 PUSH2 0x3704 JUMP JUMPDEST SWAP2 POP PUSH2 0x3812 DUP4 PUSH2 0x3704 JUMP JUMPDEST SWAP3 POP DUP3 PUSH2 0x3822 JUMPI PUSH2 0x3821 PUSH2 0x385C JUMP JUMPDEST JUMPDEST DUP3 DUP3 MOD SWAP1 POP SWAP3 SWAP2 POP POP JUMP JUMPDEST PUSH32 0x4E487B7100000000000000000000000000000000000000000000000000000000 PUSH1 0x0 MSTORE PUSH1 0x11 PUSH1 0x4 MSTORE PUSH1 0x24 PUSH1 0x0 REVERT JUMPDEST PUSH32 0x4E487B7100000000000000000000000000000000000000000000000000000000 PUSH1 0x0 MSTORE PUSH1 0x12 PUSH1 0x4 MSTORE PUSH1 0x24 PUSH1 0x0 REVERT JUMPDEST PUSH32 0x4E487B7100000000000000000000000000000000000000000000000000000000 PUSH1 0x0 MSTORE PUSH1 0x22 PUSH1 0x4 MSTORE PUSH1 0x24 PUSH1 0x0 REVERT JUMPDEST PUSH32 0x4E487B7100000000000000000000000000000000000000000000000000000000 PUSH1 0x0 MSTORE PUSH1 0x41 PUSH1 0x4 MSTORE PUSH1 0x24 PUSH1 0x0 REVERT JUMPDEST PUSH1 0x0 PUSH1 0x1F NOT PUSH1 0x1F DUP4 ADD AND SWAP1 POP SWAP2 SWAP1 POP JUMP JUMPDEST PUSH32 0x5061757361626C653A206E6F7420706175736564000000000000000000000000 PUSH1 0x0 DUP3 ADD MSTORE POP JUMP JUMPDEST PUSH32 0x455243373231456E756D657261626C653A206F776E657220696E646578206F75 PUSH1 0x0 DUP3 ADD MSTORE PUSH32 0x74206F6620626F756E6473000000000000000000000000000000000000000000 PUSH1 0x20 DUP3 ADD MSTORE POP JUMP JUMPDEST PUSH32 0x4552433732313A207472616E7366657220746F206E6F6E204552433732315265 PUSH1 0x0 DUP3 ADD MSTORE PUSH32 0x63656976657220696D706C656D656E7465720000000000000000000000000000 PUSH1 0x20 DUP3 ADD MSTORE POP JUMP JUMPDEST PUSH32 0x4F776E61626C653A206E6577206F776E657220697320746865207A65726F2061 PUSH1 0x0 DUP3 ADD MSTORE PUSH32 0x6464726573730000000000000000000000000000000000000000000000000000 PUSH1 0x20 DUP3 ADD MSTORE POP JUMP JUMPDEST PUSH32 0x4552433732313A207472616E736665722066726F6D20696E636F727265637420 PUSH1 0x0 DUP3 ADD MSTORE PUSH32 0x6F776E6572000000000000000000000000000000000000000000000000000000 PUSH1 0x20 DUP3 ADD MSTORE POP JUMP JUMPDEST PUSH32 0x4552433732313A20746F6B656E20616C7265616479206D696E74656400000000 PUSH1 0x0 DUP3 ADD MSTORE POP JUMP JUMPDEST PUSH32 0x4552433732313A207472616E7366657220746F20746865207A65726F20616464 PUSH1 0x0 DUP3 ADD MSTORE PUSH32 0x7265737300000000000000000000000000000000000000000000000000000000 PUSH1 0x20 DUP3 ADD MSTORE POP JUMP JUMPDEST PUSH32 0x4552433732313A20617070726F766520746F2063616C6C657200000000000000 PUSH1 0x0 DUP3 ADD MSTORE POP JUMP JUMPDEST PUSH32 0x536F7272792C206D6178204E465427732068617665206265656E206D696E7465 PUSH1 0x0 DUP3 ADD MSTORE PUSH32 0x6400000000000000000000000000000000000000000000000000000000000000 PUSH1 0x20 DUP3 ADD MSTORE POP JUMP JUMPDEST PUSH32 0x4552433732313A206F70657261746F7220717565727920666F72206E6F6E6578 PUSH1 0x0 DUP3 ADD MSTORE PUSH32 0x697374656E7420746F6B656E0000000000000000000000000000000000000000 PUSH1 0x20 DUP3 ADD MSTORE POP JUMP JUMPDEST PUSH32 0x5061757361626C653A2070617573656400000000000000000000000000000000 PUSH1 0x0 DUP3 ADD MSTORE POP JUMP JUMPDEST PUSH32 0x4552433732313A20617070726F76652063616C6C6572206973206E6F74206F77 PUSH1 0x0 DUP3 ADD MSTORE PUSH32 0x6E6572206E6F7220617070726F76656420666F7220616C6C0000000000000000 PUSH1 0x20 DUP3 ADD MSTORE POP JUMP JUMPDEST PUSH32 0x4552433732313A2062616C616E636520717565727920666F7220746865207A65 PUSH1 0x0 DUP3 ADD MSTORE PUSH32 0x726F206164647265737300000000000000000000000000000000000000000000 PUSH1 0x20 DUP3 ADD MSTORE POP JUMP JUMPDEST PUSH32 0x4552433732313A206F776E657220717565727920666F72206E6F6E6578697374 PUSH1 0x0 DUP3 ADD MSTORE PUSH32 0x656E7420746F6B656E0000000000000000000000000000000000000000000000 PUSH1 0x20 DUP3 ADD MSTORE POP JUMP JUMPDEST PUSH32 0x45524337323155524953746F726167653A2055524920736574206F66206E6F6E PUSH1 0x0 DUP3 ADD MSTORE PUSH32 0x6578697374656E7420746F6B656E000000000000000000000000000000000000 PUSH1 0x20 DUP3 ADD MSTORE POP JUMP JUMPDEST PUSH32 0x4552433732313A206D696E7420746F20746865207A65726F2061646472657373 PUSH1 0x0 DUP3 ADD MSTORE POP JUMP JUMPDEST PUSH32 0x45524337323155524953746F726167653A2055524920717565727920666F7220 PUSH1 0x0 DUP3 ADD MSTORE PUSH32 0x6E6F6E6578697374656E7420746F6B656E000000000000000000000000000000 PUSH1 0x20 DUP3 ADD MSTORE POP JUMP JUMPDEST PUSH32 0x4552433732313A20617070726F76656420717565727920666F72206E6F6E6578 PUSH1 0x0 DUP3 ADD MSTORE PUSH32 0x697374656E7420746F6B656E0000000000000000000000000000000000000000 PUSH1 0x20 DUP3 ADD MSTORE POP JUMP JUMPDEST PUSH32 0x4F776E61626C653A2063616C6C6572206973206E6F7420746865206F776E6572 PUSH1 0x0 DUP3 ADD MSTORE POP JUMP JUMPDEST PUSH32 0x4552433732314D657461646174613A2055524920717565727920666F72206E6F PUSH1 0x0 DUP3 ADD MSTORE PUSH32 0x6E6578697374656E7420746F6B656E0000000000000000000000000000000000 PUSH1 0x20 DUP3 ADD MSTORE POP JUMP JUMPDEST PUSH32 0x4552433732313A20617070726F76616C20746F2063757272656E74206F776E65 PUSH1 0x0 DUP3 ADD MSTORE PUSH32 0x7200000000000000000000000000000000000000000000000000000000000000 PUSH1 0x20 DUP3 ADD MSTORE POP JUMP JUMPDEST PUSH32 0x4552433732313A207472616E736665722063616C6C6572206973206E6F74206F PUSH1 0x0 DUP3 ADD MSTORE PUSH32 0x776E6572206E6F7220617070726F766564000000000000000000000000000000 PUSH1 0x20 DUP3 ADD MSTORE POP JUMP JUMPDEST PUSH32 0x455243373231456E756D657261626C653A20676C6F62616C20696E646578206F PUSH1 0x0 DUP3 ADD MSTORE PUSH32 0x7574206F6620626F756E64730000000000000000000000000000000000000000 PUSH1 0x20 DUP3 ADD MSTORE POP JUMP JUMPDEST PUSH32 0x4552433732314275726E61626C653A2063616C6C6572206973206E6F74206F77 PUSH1 0x0 DUP3 ADD MSTORE PUSH32 0x6E6572206E6F7220617070726F76656400000000000000000000000000000000 PUSH1 0x20 DUP3 ADD MSTORE POP JUMP JUMPDEST PUSH2 0x3F87 DUP2 PUSH2 0x369A JUMP JUMPDEST DUP2 EQ PUSH2 0x3F92 JUMPI PUSH1 0x0 DUP1 REVERT JUMPDEST POP JUMP JUMPDEST PUSH2 0x3F9E DUP2 PUSH2 0x36AC JUMP JUMPDEST DUP2 EQ PUSH2 0x3FA9 JUMPI PUSH1 0x0 DUP1 REVERT JUMPDEST POP JUMP JUMPDEST PUSH2 0x3FB5 DUP2 PUSH2 0x36B8 JUMP JUMPDEST DUP2 EQ PUSH2 0x3FC0 JUMPI PUSH1 0x0 DUP1 REVERT JUMPDEST POP JUMP JUMPDEST PUSH2 0x3FCC DUP2 PUSH2 0x3704 JUMP JUMPDEST DUP2 EQ PUSH2 0x3FD7 JUMPI PUSH1 0x0 DUP1 REVERT JUMPDEST POP JUMP INVALID LOG2 PUSH5 0x6970667358 0x22 SLT KECCAK256 0xCF 0xC9 PUSH14 0xCB6C10F9879D44BB235574A6623A PUSH3 0x5B98C6 0x22 CODESIZE PUSH15 0xFC9E573AA208D1CB64736F6C634300 ADDMOD DIV STOP CALLER "
		},
		"gasEstimates": {
			"creation": {
				"codeDepositCost": "3280000",
				"executionCost": "infinite",
				"totalCost": "infinite"
			},
			"external": {
				"approve(address,uint256)": "infinite",
				"balanceOf(address)": "1624",
				"burn(uint256)": "infinite",
				"getApproved(uint256)": "2628",
				"isApprovedForAll(address,address)": "infinite",
				"name()": "infinite",
				"owner()": "1383",
				"ownerOf(uint256)": "1700",
				"pause()": "infinite",
				"paused()": "1312",
				"renounceOwnership()": "24591",
				"safeMint(address,string)": "infinite",
				"safeTransferFrom(address,address,uint256)": "infinite",
				"safeTransferFrom(address,address,uint256,bytes)": "infinite",
				"setApprovalForAll(address,bool)": "infinite",
				"supportsInterface(bytes4)": "929",
				"symbol()": "infinite",
				"tokenByIndex(uint256)": "infinite",
				"tokenOfOwnerByIndex(address,uint256)": "infinite",
				"tokenURI(uint256)": "infinite",
				"totalSupply()": "1257",
				"transferFrom(address,address,uint256)": "infinite",
				"transferOwnership(address)": "25005",
				"unpause()": "infinite"
			},
			"internal": {
				"_beforeTokenTransfer(address,address,uint256)": "infinite",
				"_burn(uint256)": "infinite"
			}
		},
		"methodIdentifiers": {
			"approve(address,uint256)": "095ea7b3",
			"balanceOf(address)": "70a08231",
			"burn(uint256)": "42966c68",
			"getApproved(uint256)": "081812fc",
			"isApprovedForAll(address,address)": "e985e9c5",
			"name()": "06fdde03",
			"owner()": "8da5cb5b",
			"ownerOf(uint256)": "6352211e",
			"pause()": "8456cb59",
			"paused()": "5c975abb",
			"renounceOwnership()": "715018a6",
			"safeMint(address,string)": "d204c45e",
			"safeTransferFrom(address,address,uint256)": "42842e0e",
			"safeTransferFrom(address,address,uint256,bytes)": "b88d4fde",
			"setApprovalForAll(address,bool)": "a22cb465",
			"supportsInterface(bytes4)": "01ffc9a7",
			"symbol()": "95d89b41",
			"tokenByIndex(uint256)": "4f6ccce7",
			"tokenOfOwnerByIndex(address,uint256)": "2f745c59",
			"tokenURI(uint256)": "c87b56dd",
			"totalSupply()": "18160ddd",
			"transferFrom(address,address,uint256)": "23b872dd",
			"transferOwnership(address)": "f2fde38b",
			"unpause()": "3f4ba83a"
		}
	},
	"abi": [
		{
			"inputs": [],
			"stateMutability": "nonpayable",
			"type": "constructor"
		},
		{
			"anonymous": false,
			"inputs": [
				{
					"indexed": true,
					"internalType": "address",
					"name": "owner",
					"type": "address"
				},
				{
					"indexed": true,
					"internalType": "address",
					"name": "approved",
					"type": "address"
				},
				{
					"indexed": true,
					"internalType": "uint256",
					"name": "tokenId",
					"type": "uint256"
				}
			],
			"name": "Approval",
			"type": "event"
		},
		{
			"anonymous": false,
			"inputs": [
				{
					"indexed": true,
					"internalType": "address",
					"name": "owner",
					"type": "address"
				},
				{
					"indexed": true,
					"internalType": "address",
					"name": "operator",
					"type": "address"
				},
				{
					"indexed": false,
					"internalType": "bool",
					"name": "approved",
					"type": "bool"
				}
			],
			"name": "ApprovalForAll",
			"type": "event"
		},
		{
			"anonymous": false,
			"inputs": [
				{
					"indexed": true,
					"internalType": "address",
					"name": "previousOwner",
					"type": "address"
				},
				{
					"indexed": true,
					"internalType": "address",
					"name": "newOwner",
					"type": "address"
				}
			],
			"name": "OwnershipTransferred",
			"type": "event"
		},
		{
			"anonymous": false,
			"inputs": [
				{
					"indexed": false,
					"internalType": "address",
					"name": "account",
					"type": "address"
				}
			],
			"name": "Paused",
			"type": "event"
		},
		{
			"anonymous": false,
			"inputs": [
				{
					"indexed": true,
					"internalType": "address",
					"name": "from",
					"type": "address"
				},
				{
					"indexed": true,
					"internalType": "address",
					"name": "to",
					"type": "address"
				},
				{
					"indexed": true,
					"internalType": "uint256",
					"name": "tokenId",
					"type": "uint256"
				}
			],
			"name": "Transfer",
			"type": "event"
		},
		{
			"anonymous": false,
			"inputs": [
				{
					"indexed": false,
					"internalType": "address",
					"name": "account",
					"type": "address"
				}
			],
			"name": "Unpaused",
			"type": "event"
		},
		{
			"inputs": [
				{
					"internalType": "address",
					"name": "to",
					"type": "address"
				},
				{
					"internalType": "uint256",
					"name": "tokenId",
					"type": "uint256"
				}
			],
			"name": "approve",
			"outputs": [],
			"stateMutability": "nonpayable",
			"type": "function"
		},
		{
			"inputs": [
				{
					"internalType": "address",
					"name": "owner",
					"type": "address"
				}
			],
			"name": "balanceOf",
			"outputs": [
				{
					"internalType": "uint256",
					"name": "",
					"type": "uint256"
				}
			],
			"stateMutability": "view",
			"type": "function"
		},
		{
			"inputs": [
				{
					"internalType": "uint256",
					"name": "tokenId",
					"type": "uint256"
				}
			],
			"name": "burn",
			"outputs": [],
			"stateMutability": "nonpayable",
			"type": "function"
		},
		{
			"inputs": [
				{
					"internalType": "uint256",
					"name": "tokenId",
					"type": "uint256"
				}
			],
			"name": "getApproved",
			"outputs": [
				{
					"internalType": "address",
					"name": "",
					"type": "address"
				}
			],
			"stateMutability": "view",
			"type": "function"
		},
		{
			"inputs": [
				{
					"internalType": "address",
					"name": "owner",
					"type": "address"
				},
				{
					"internalType": "address",
					"name": "operator",
					"type": "address"
				}
			],
			"name": "isApprovedForAll",
			"outputs": [
				{
					"internalType": "bool",
					"name": "",
					"type": "bool"
				}
			],
			"stateMutability": "view",
			"type": "function"
		},
		{
			"inputs": [],
			"name": "name",
			"outputs": [
				{
					"internalType": "string",
					"name": "",
					"type": "string"
				}
			],
			"stateMutability": "view",
			"type": "function"
		},
		{
			"inputs": [],
			"name": "owner",
			"outputs": [
				{
					"internalType": "address",
					"name": "",
					"type": "address"
				}
			],
			"stateMutability": "view",
			"type": "function"
		},
		{
			"inputs": [
				{
					"internalType": "uint256",
					"name": "tokenId",
					"type": "uint256"
				}
			],
			"name": "ownerOf",
			"outputs": [
				{
					"internalType": "address",
					"name": "",
					"type": "address"
				}
			],
			"stateMutability": "view",
			"type": "function"
		},
		{
			"inputs": [],
			"name": "pause",
			"outputs": [],
			"stateMutability": "nonpayable",
			"type": "function"
		},
		{
			"inputs": [],
			"name": "paused",
			"outputs": [
				{
					"internalType": "bool",
					"name": "",
					"type": "bool"
				}
			],
			"stateMutability": "view",
			"type": "function"
		},
		{
			"inputs": [],
			"name": "renounceOwnership",
			"outputs": [],
			"stateMutability": "nonpayable",
			"type": "function"
		},
		{
			"inputs": [
				{
					"internalType": "address",
					"name": "to",
					"type": "address"
				},
				{
					"internalType": "string",
					"name": "uri",
					"type": "string"
				}
			],
			"name": "safeMint",
			"outputs": [],
			"stateMutability": "nonpayable",
			"type": "function"
		},
		{
			"inputs": [
				{
					"internalType": "address",
					"name": "from",
					"type": "address"
				},
				{
					"internalType": "address",
					"name": "to",
					"type": "address"
				},
				{
					"internalType": "uint256",
					"name": "tokenId",
					"type": "uint256"
				}
			],
			"name": "safeTransferFrom",
			"outputs": [],
			"stateMutability": "nonpayable",
			"type": "function"
		},
		{
			"inputs": [
				{
					"internalType": "address",
					"name": "from",
					"type": "address"
				},
				{
					"internalType": "address",
					"name": "to",
					"type": "address"
				},
				{
					"internalType": "uint256",
					"name": "tokenId",
					"type": "uint256"
				},
				{
					"internalType": "bytes",
					"name": "_data",
					"type": "bytes"
				}
			],
			"name": "safeTransferFrom",
			"outputs": [],
			"stateMutability": "nonpayable",
			"type": "function"
		},
		{
			"inputs": [
				{
					"internalType": "address",
					"name": "operator",
					"type": "address"
				},
				{
					"internalType": "bool",
					"name": "approved",
					"type": "bool"
				}
			],
			"name": "setApprovalForAll",
			"outputs": [],
			"stateMutability": "nonpayable",
			"type": "function"
		},
		{
			"inputs": [
				{
					"internalType": "bytes4",
					"name": "interfaceId",
					"type": "bytes4"
				}
			],
			"name": "supportsInterface",
			"outputs": [
				{
					"internalType": "bool",
					"name": "",
					"type": "bool"
				}
			],
			"stateMutability": "view",
			"type": "function"
		},
		{
			"inputs": [],
			"name": "symbol",
			"outputs": [
				{
					"internalType": "string",
					"name": "",
					"type": "string"
				}
			],
			"stateMutability": "view",
			"type": "function"
		},
		{
			"inputs": [
				{
					"internalType": "uint256",
					"name": "index",
					"type": "uint256"
				}
			],
			"name": "tokenByIndex",
			"outputs": [
				{
					"internalType": "uint256",
					"name": "",
					"type": "uint256"
				}
			],
			"stateMutability": "view",
			"type": "function"
		},
		{
			"inputs": [
				{
					"internalType": "address",
					"name": "owner",
					"type": "address"
				},
				{
					"internalType": "uint256",
					"name": "index",
					"type": "uint256"
				}
			],
			"name": "tokenOfOwnerByIndex",
			"outputs": [
				{
					"internalType": "uint256",
					"name": "",
					"type": "uint256"
				}
			],
			"stateMutability": "view",
			"type": "function"
		},
		{
			"inputs": [
				{
					"internalType": "uint256",
					"name": "tokenId",
					"type": "uint256"
				}
			],
			"name": "tokenURI",
			"outputs": [
				{
					"internalType": "string",
					"name": "",
					"type": "string"
				}
			],
			"stateMutability": "view",
			"type": "function"
		},
		{
			"inputs": [],
			"name": "totalSupply",
			"outputs": [
				{
					"internalType": "uint256",
					"name": "",
					"type": "uint256"
				}
			],
			"stateMutability": "view",
			"type": "function"
		},
		{
			"inputs": [
				{
					"internalType": "address",
					"name": "from",
					"type": "address"
				},
				{
					"internalType": "address",
					"name": "to",
					"type": "address"
				},
				{
					"internalType": "uint256",
					"name": "tokenId",
					"type": "uint256"
				}
			],
			"name": "transferFrom",
			"outputs": [],
			"stateMutability": "nonpayable",
			"type": "function"
		},
		{
			"inputs": [
				{
					"internalType": "address",
					"name": "newOwner",
					"type": "address"
				}
			],
			"name": "transferOwnership",
			"outputs": [],
			"stateMutability": "nonpayable",
			"type": "function"
		},
		{
			"inputs": [],
			"name": "unpause",
			"outputs": [],
			"stateMutability": "nonpayable",
			"type": "function"
		}
	]
}